:100000000C948D000C94C01E0C94991E0C94B50099
:100010000C94B5000C94B5000C94B5000C94B5008C
:100020000C94B5000C94B5000C94B5000C945A20B7
:100030000C94B5000C94B5000C94B5000C94B5006C
:100040000C944F1E0C94B5000C940D1F0C94E71EDD
:100050000C94B5000C94B5000C94B5000C94B5004C
:100060000C943F1F0C94B500CDCCCC3D0AD7233C5B
:1000700017B7D13877CC2B329595E6241FB14F0AAC
:10008000000020410000C84200401C4620BCBE4C7D
:10009000CA1B0E5AAEC59D747B00000000002400F0
:1000A00027002A0000000000250028002B00000087
:1000B00000002300260029000404040404040404AE
:1000C0000202020202020303030303030102040803
:1000D00010204080010204081020010204081020B2
:1000E00000000008000201000003040700000000F7
:1000F00000000000540054004434004434004433F1
:1001000000443300443200443200443100443100A2
:10011000480048004E004E005B2111241FBECFEF67
:10012000D8E0DEBFCDBF12E0A0E0B1E0E4E6F8E544
:1001300002C005900D92A233B107D9F727E0A2E3E0
:10014000B2E001C01D92A73BB207E1F710E0CDE895
:10015000D0E004C02197FE010E94F126CC38D107DF
:10016000C9F70E945B230C94302C0C940000833060
:1001700081F028F4813099F08230A9F00895873019
:10018000A9F08830C9F08430B1F4809180008F7D6F
:1001900003C0809180008F7780938000089584B59C
:1001A0008F7784BD089584B58F7DFBCF8091B0009B
:1001B0008F778093B00008958091B0008F7DF9CF44
:1001C000CF93DF93282F30E0F901E052FF4F849165
:1001D000F901E453FF4FD491F901E854FF4FC49162
:1001E000CC23A1F081110E94B700EC2FF0E0EE0FBC
:1001F000FF1FE255FF4FA591B491EC91ED2381E0F3
:1002000090E009F480E0DF91CF91089580E090E0E4
:10021000FACF1F93CF93DF93282F30E0F901E052FC
:10022000FF4F8491F901E453FF4FD491F901E85451
:10023000FF4FC491CC23A9F0162F81110E94B70063
:10024000EC2FF0E0EE0FFF1FEC55FF4FA591B4919E
:100250008FB7F894EC91111108C0D095DE23DC9390
:100260008FBFDF91CF911F910895DE2BF8CFCF93F1
:10027000DF9390E0FC01E453FF4F249188549F4F9B
:10028000FC0184918823C9F090E0880F991FFC013C
:10029000E656FF4FA591B491FC01EC55FF4FC59177
:1002A000D49161110DC09FB7F8948C912095822351
:1002B0008C938881282328839FBFDF91CF91089555
:1002C000623051F49FB7F8943C91822F809583233C
:1002D0008C93E8812E2BEFCF8FB7F894EC912E2BD7
:1002E0002C938FBFEACF1F93CF93DF93182FEB018F
:1002F00061E00E943701209739F460E0812FDF919F
:10030000CF911F910C940901CF3FD10511F461E009
:10031000F5CFE12FF0E0E052FF4FE491E33031F10F
:1003200040F4E130B1F0E230E1F0C038D1057CF7C3
:10033000E4CFE73029F1E83059F1E430B1F78091AA
:100340008000806280938000D0938B00C0938A00ED
:1003500004C084B5806884BDC7BDDF91CF911F9173
:10036000089584B5806284BDC8BDF7CF80918000B8
:10037000806880938000D0938900C0938800EDCF7F
:100380008091B00080688093B000C093B300E5CF47
:100390008091B00080628093B000C093B400DDCF44
:1003A0000F931F93CF93DF93EC01162F042F009729
:1003B00069F470E060E0812F0E94730160E0802F9B
:1003C000DF91CF911F910F910C94090161E01816F4
:1003D00019060CF060E0802F0E940901BE01D7FFD2
:1003E00003C07195619571097727812FDF91CF91B6
:1003F0001F910F910C9473018E50806480937C0048
:1004000080917A00806480937A0080917A0086FDE2
:10041000FCCF8091780090917900089581E10E944D
:10042000FC01BC0190E080E00E9411282EE230E93E
:1004300040EA5BE30E94C8289B01AC010E94F826B9
:1004400020E030E04AE754E40E94C8280E94E227F6
:100450009B0170937A0760937907203787E138070B
:1004600038F481E080937C0781E080937B070895D6
:10047000293388E1380710F010927C0728358BE18A
:10048000380790F321323C4110F010927B07089519
:100490003FB7F8948091CF029091D002A091D10201
:1004A000B091D20226B5A89B05C02F3F19F0019646
:1004B000A11DB11D3FBFBA2FA92F982F8827BC01BE
:1004C000CD01620F711D811D911D42E0660F771FE6
:1004D000881F991F4A95D1F708958F929F92AF92E6
:1004E000BF92CF92DF92EF92FF924B015C010E948C
:1004F00048026B017C010E9448026C197D098E093B
:100500009F09683E734081059105A8F321E0821A96
:100510009108A108B10888EEC80E83E0D81EE11C3E
:10052000F11C81149104A104B10429F7FF90EF900C
:10053000DF90CF90BF90AF909F908F9008952FB78E
:10054000F8946091CB027091CC028091CD02909191
:10055000CE022FBF0895CF92DF92EF92FF920F93BA
:100560001F93CF93DF93C82F80918C0590918D05B9
:10057000A0918E05B0918F05892B8A2B8B2BD9F0FA
:100580000E9448020091E8041091E9042091EA04D5
:100590003091EB04601B710B820B930B00918C0567
:1005A00010918D0520918E0530918F056017710790
:1005B00082079307C8F20E9448026093E804709390
:1005C000E9048093EA049093EB04E0919405F091A0
:1005D0009505309751F040919005509191056091AB
:1005E0009205709193058C2F09958091E604909166
:1005F000E704EC012196D093E704C093E604499701
:10060000E4F10E949F020091E2041091E304209122
:10061000E4043091E5046B017C01C01AD10AE20ABE
:10062000F30AA7019601211531054105510521F471
:1006300021E030E040E050E088EE93E0C89FB00158
:10064000C99F700DD89F700D1124072E000C880BC8
:10065000990B0E94A02630938B0520938A05109257
:10066000E7041092E6040E949F026093E2047093F4
:10067000E3048093E4049093E504DF91CF911F910C
:100680000F91FF90EF90DF90CF9008950895089517
:10069000AF92BF92CF92DF92EF92FF920F931F9390
:1006A000CF93DF936C017B018B01040F151FEB01CE
:1006B0005E01AE18BF08C017D10759F06991D60185
:1006C000ED91FC910190F081E02DC6010995892BF7
:1006D00079F7C501DF91CF911F910F91FF90EF90B6
:1006E000DF90CF90BF90AF900895FC01538D448D63
:1006F000252F30E0842F90E0821B930B541710F0CD
:10070000CF96089501970895FC01918D828D9817D9
:1007100061F0A28DAE0FBF2FB11D5D968C91928DB1
:100720009F5F9F73928F90E008958FEF9FEF0895E2
:10073000FC01918D828D981731F0828DE80FF11DAB
:10074000858D90E008958FEF9FEF0895FC01918DC6
:10075000228D892F90E0805C9F4F821B91098F73BF
:10076000992708958CEE94E00E94A60321E0892B3E
:1007700009F420E0822F089580E090E0892B29F091
:100780000E94B20381110C9400000895FC01A48D15
:10079000A80FB92FB11DA35ABF4F2C91848D90E0A3
:1007A00001968F739927848FA689B7892C93A08986
:1007B000B1898C91837080648C93938D848D981310
:1007C00006C00288F389E02D80818F7D80830895A3
:1007D000EF92FF920F931F93CF93DF93EC0181E091
:1007E000888F9B8D8C8D98131AC0E889F989808138
:1007F00085FF15C09FB7F894EE89FF896083E8896B
:10080000F98980818370806480839FBF81E090E05C
:10081000DF91CF911F910F91FF90EF900895F62EE9
:100820000B8D10E00F5F1F4F0F731127E02E8C8D83
:100830008E110CC00FB607FCFACFE889F9898081C8
:1008400085FFF5CFCE010E94C603F1CFEB8DEC0FF3
:10085000FD2FF11DE35AFF4FF0829FB7F8940B8FE5
:10086000EA89FB8980818062CFCF0F931F93CF935A
:10087000DF938C01D0E0C0E0F801EC0FFD1F649124
:10088000662341F08CEE94E00E94E803892B11F07E
:100890002196F2CFCE01DF91CF911F910F91089554
:1008A000682F8CEE94E00C94E803CF93DF93EC0177
:1008B000888D8823B9F0AA89BB89E889F9898C9148
:1008C00085FD03C0808186FD0DC00FB607FCF7CF04
:1008D0008C9185FFF2CF808185FFEDCFCE010E9404
:1008E000C603E9CFDF91CF91089520917F02260FB3
:1008F0003327331F21323105ECF42091A302FC0190
:1009000090E080E0243069F082E00895A0917F02B9
:100910002191AC01415A5D4FA40FB52FB11D2C930D
:100920000196861798F380917F02680F60937F028B
:1009300080E0089581E0089508958FEF9FEF089576
:100940008FEF9FEF08958091580290E091958195E7
:1009500091090895CF93DF93CB01EA01642F0E94A0
:100960007504CE01DF91CF910895CF93DF931F924D
:10097000CDB7DEB7698361E0CE0101960E947504B0
:1009800081E090E00F90DF91CF91089590E080E0BA
:1009900008958F929F92AF92BF92FF920F931F93F1
:1009A000CF93DF93FC01F0808BE08F1508F44FC0EC
:1009B000828108E512E0081B110987FD1395000FDD
:1009C000111F000F111F8181C8E8D0E0C81BD10999
:1009D00087FDD395CC0FDD1FCC0FDD1F4E010D2EF3
:1009E000000CAA08BB08DB01653B710514F0A4EB01
:1009F000B0E09801012E000C440B550B2819390961
:100A00004A095B090E94982624EB30E040E050E060
:100A10000E946E26820E931EA41EB51E8C169D0685
:100A20002CF0E801801691060CF4E4012297CC0F1B
:100A3000DD1F2FB7F8948F2D90E0FC01EE0FFF1F04
:100A4000E80FF91FEA56FA4FD283C1832FBFDF9117
:100A5000CF911F910F91FF90BF90AF909F908F907B
:100A600008950F931F93CF93DF938C01A895D0E047
:100A7000C0E0F8018081882339F08CEE94E00E9478
:100A80007503892B41F4A895A895CE01DF91CF91EC
:100A90001F910F910895F80161918F018CEE94E000
:100AA0000E94E8032196CE0183709927892B09F7CC
:100AB000A895DFCF982F80336CF08A3324F08F35E0
:100AC00024F08B3724F481E0089581341CF081E018
:100AD0009B350CF080E00895FC01808581110AC0EF
:100AE000A581B681CD010196968385838C918783FC
:100AF00081E08087878108951F93CF93DF93EC0176
:100B0000162F0E946C05811306C0188681E0DF91C4
:100B1000CF911F91089580E0FACF0F931F93CF9349
:100B2000DF938C01EB018991882369F0C8010E9451
:100B30006C05882379F0FE013197908198130DC0E0
:100B4000F8011086F0CF90E080E0DF91CF911F9107
:100B50000F91089582E090E0F8CF83E090E0F5CF28
:100B6000CF93DF93EC01CE010E946C058B304CF4E7
:100B700089305CF4882359F081E08C8390E080E038
:100B80000BC08D3011F08032B9F71886ECCF8C8114
:100B9000811105C081E090E0DF91CF91089582E05E
:100BA00090E0FACFE2EEF2E062EE74E030E020E0B6
:100BB000C90148E0DC01880F991FB7FF04C051E26A
:100BC000852750E195274150A9F78193919333955B
:100BD0006E177F0769F781E08093E10208955F92C5
:100BE0006F927F928F929F92AF92BF92CF92DF923D
:100BF000EF92FF920F931F93CF93DF93F80177E06B
:100C0000672E620E90E4961508F460C032E0C32EA1
:100C1000C20E9AEA908395E59183C28283836483AE
:100C2000DA012A5F85E077247394780E7F01E80E5D
:100C3000F11C271529F08D91E7018883872DF3CFCB
:100C40008F01D12CDFEFCD1ADD0A8091E1028111F5
:100C500002C00E94D2054801E2E08E0E911CCFEF47
:100C6000DFEFB12CA12CF40151904F018091E102F2
:100C7000811102C00E94D2055D26E52DF0E0EE0F45
:100C8000FF1FEE51FD4FDC2FCC2780819181C827BB
:100C9000D9278FEFA81AB80AAC14BD0420F3F701C6
:100CA000C083070D111DF801D083862DDF91CF91F0
:100CB0001F910F91FF90EF90DF90CF90BF90AF907A
:100CC0009F908F907F906F905F900895612CEDCFF3
:100CD000CF93DF93EC0170E060E085E00E94730148
:100CE00070E060E086E00E94730160E083E00E94B3
:100CF00009011A861D821C821F821E821982188297
:100D00001B821A82DF91CF910895EF92FF920F9389
:100D10001F93CF93DF93EC018B017A0161E083E0B5
:100D20000E94090181E08A8798010F3F110519F09F
:100D300014F02FEF30E021304FEF340714F421E0AE
:100D40003FEF39832883C7014FEFE416F10419F010
:100D500014F08FEF90E081304FEF940714F481E0AE
:100D60009FEF9B838A833D832C839F838E8347E001
:100D700065E0C7010E94D00148E066E0C801DF914C
:100D8000CF911F910F91FF90EF900C94D0010F9392
:100D90001F9380918106909182060197A9F5809119
:100DA0007F0690918006892B79F10E949F02009125
:100DB0008B0610918C0620918D0630918E06601B5B
:100DC000710B820B930B009187061091880620917E
:100DD000890630918A066017710782079307F0F140
:100DE0001092820610928106109284061092830659
:100DF00010928606109285061092900610928F0629
:100E0000109292061092910680917606882319F12D
:100E10008091650690916606892BE9F00E949F02F9
:100E200000917B0610917C0620917D0630917E0614
:100E3000601B710B820B930B009177061091780663
:100E40002091790630917A0660177107820793071F
:100E5000C8F1109276061F910F9108954091850672
:100E6000509186068091830690918406BC01641B94
:100E7000750B6F3F710519F014F06FEF70E0613082
:100E80002FEF720714F461E07FEF480F591F4F3FB7
:100E9000510519F014F04FEF50E041308FEF580733
:100EA00014F441E05FEF7093900660938F065093C7
:100EB00092064093910680917F06909180060E9451
:100EC0008506A2CF0E949F0200916A0610916B06D0
:100ED00020916C0630916D06601B710B820B930B99
:100EE00000916E0610916F06209170063091710688
:100EF000601771078207930708F455C0809169064F
:100F00008F5F809369060E949F0260936A067093C8
:100F10006B0680936C0690936D06809167069091A6
:100F200068068230910509F44EC040F4019709F03B
:100F300090CF25E030E08DE491E00FC08330910543
:100F400041F0049709F085CF22E030E085E091E0A0
:100F500004C025E030E085E191E0E0916906F0E031
:100F6000E217F30708F075CF23E0EE0FFF1F2A9575
:100F7000E1F7E80FF91F84819581A681B7818093FD
:100F80006E0690936F06A0937006B09371068081F1
:100F900091819093730680937206828193819093DE
:100FA00075068093740640917406509175066091A1
:100FB00072067091730680916506909166061F9186
:100FC0000F910C94850622E030E08DE391E0C5CFCF
:100FD000CF93DF93EC0161E083E00E94090181E09F
:100FE0008A87DF91CF910895FC01A281B38180812E
:100FF000918130E020E0A817B90738F4CD010196BF
:10100000938382836C9321E030E084819581820F09
:10101000931F958384830895CF93DF93FC0182818E
:101020009381EB01460F571FA281B381208131814B
:10103000A217B30758F4C417D50741F02991BD0191
:101040006F5F7F4F738362832C93EECFA81BB90B26
:1010500084819581A80FB91FB583A483DF91CF91B7
:1010600008958F929F92AF92BF92CF92DF92EF92AC
:10107000FF920F931F93CF93DF93CDB7DEB76697A1
:101080000FB6F894DEBF0FBECDBF6C018E01095EB6
:101090001F4F78018AE0882E912CA12CB12CCB0116
:1010A000BA01A50194010E94A026942F852F605DAE
:1010B000F80162938F01A901692F782F411551051D
:1010C0006105710561F7A7014E1B5F0BBF01C601EA
:1010D0000E940C0866960FB6F894DEBF0FBECDBF17
:1010E000DF91CF911F910F91FF90EF90DF90CF9004
:1010F000BF90AF909F908F900895FC0186858111DD
:1011000014C0A185B285838594852FEF3FEFA81782
:10111000B90730F4CD010196928781872C9130E098
:1011200037FD20E0258781E08687858508951F9318
:10113000CF93DF93EC01162F0E947D08811306C028
:101140001E8681E0DF91CF911F91089580E0FACF54
:101150000F931F93CF93DF938C01EB018991882329
:1011600069F0C8010E947D08882379F0FE0131975B
:10117000908198130DC0F8011686F0CF90E080E0C2
:10118000DF91CF911F910F91089582E090E0F8CF09
:1011900083E090E0F5CFCF93DF93EC01CE010E9486
:1011A0007D088B304CF489305CF4882359F081E061
:1011B000888790E080E00BC08D3011F08032B9F765
:1011C0001E86ECCF8885811105C081E090E0DF911B
:1011D000CF91089582E090E0FACFFC010E969183C2
:1011E000808393838283805C9F4F958384839783DE
:1011F0008683108615860895FC01CB01985D8115C4
:10120000944028F473707183608380E00895CB016B
:101210009C5D8115944088F4808140E0582F550FE3
:10122000550F7370642B752B90E080E001966283FC
:1012300073838483958381E00895AB0170E060E05F
:101240004283538364837583F6CFCF92DF92EF920C
:10125000FF920F931F93CF93DF93CDB7DEB72B97FA
:101260000FB6F894DEBF0FBECDBF8C011A82198273
:101270001B821C821D821E820E946C05F82ED801E2
:1012800018961C92C8010E946C05F8011086F81689
:1012900009F4B5C0811111C082E090E02B960FB621
:1012A000F894DEBF0FBECDBFDF91CF911F910F919C
:1012B000FF90EF90DF90CF9008958C3509F095C0A6
:1012C000C8010E946C05882339F3E7E8F1E085370F
:1012D00009F07FC0D80118961C9244E0E42ED12C6E
:1012E000C12CC8010E946C058823B1F2813434F40A
:1012F0008053803130F083E090E0D0CF8F7D8753F2
:10130000F8CF34E0CC0CDD1C3A95E1F7C82AF8019F
:101310001086EA94E110E5CFB601CE0101960E9455
:10132000FC08882309F4AECF8B819C81AD81BE81FE
:1013300080389105A105B10558F4F801408151812B
:101340009A012F5F3F4F31832083FA0180839ACF28
:101350001F82282F2F732068288726E0B695A7952F
:10136000979587952A95D1F780329105A0F4806CE6
:101370008987FE013A968291882309F483CFD801A8
:101380004D915C9111979A012F5F3F4F2D933C93A4
:10139000DA018C93F0CF282F2F73206829879C01C6
:1013A00086E0369527958A95E1F72031310528F4B6
:1013B000206E2A87FE013B96DECF2F7320682A8796
:1013C000892F82958F70806F8B87FE013C96D3CFDB
:1013D00032969081992309F48ECF8913F9CF8181B8
:1013E000882309F488CFF8011086D801ED91FC918B
:1013F00011979F012F5F3F4F2D933C93A7CF90E014
:1014000080E04CCFFC0124813581A9014F5F5F4F03
:10141000868197814817590748F4828193815583C3
:101420004483FC01E20FF31F608308950190F08173
:10143000E02D81E080870895CF92DF92EF92FF92B6
:101440000F931F93CF93DF93CDB7DEB72B970FB6D4
:10145000F894DEBF0FBECDBF8C011A8219821B82A9
:101460001C821D821E820E947D08F82ED8011E96C5
:101470001C92C8010E947D08F8011686F81609F42E
:10148000A6C0811111C082E090E02B960FB6F894AF
:10149000DEBF0FBECDBFDF91CF911F910F91FF90A7
:1014A000EF90DF90CF9008958C35E9F5C8010E9448
:1014B0007D08882341F3E7E8F1E0853709F079C03A
:1014C000D8011E961C9244E0E42ED12CC12CC801F8
:1014D0000E947D088823B9F2813434F4805380312E
:1014E00030F083E090E0D1CF8F7D8753F8CF34E0A8
:1014F000CC0CDD1C3A95E1F7C82AF8011686EA946F
:10150000E110E5CFB601CE0101960E94FC088823C8
:1015100009F4AFCF8B819C81AD81BE81803891056C
:10152000A105B10528F4682FC8010E94020AA1CFC5
:101530001F82282F2F732068288726E0B695A7954D
:10154000979587952A95D1F78032910580F4806C24
:1015500089876E01FAE0CF0ED11CF60162916F010E
:10156000662309F486CFC8010E94020AF6CF282F0D
:101570002F73206829879C0186E0369527958A95E8
:10158000E1F72031310538F4206E2A876E018BE0B7
:10159000C80ED11CE2CF2F7320682A87892F82952D
:1015A0008F70806F8B876E01ACE0CA0ED11CD5CFD7
:1015B00032969081992309F494CF8913F9CF8181D0
:1015C000882309F48ECFD8011E961C92ACCF0190CF
:1015D000F081E02D8085882319F084E090E055CFDC
:1015E00090E080E052CF4F925F926F927F928F9205
:1015F0009F92AF92BF92CF92DF92EF92FF920F93A2
:101600001F93CF93DF93EB01DC012C912B32D9F1A7
:101610002D32D1F50196FF24F394FC01208130EDA9
:10162000320F3A3018F02E3209F042C18C0160E0DE
:1016300070E0CB01F801219130ED832E820E39E06C
:10164000381520F16A3949E97407840749E194079C
:1016500038F5AAE0B0E09B01AC010E948D26912CE8
:10166000B12CA12C240135014094509460947094C5
:10167000461657066806790698F0680D791D8A1D8A
:101680009B1D8F01D7CF0196F12CC7CF211108C028
:10169000FF20E9F161307105810550E89507A0F060
:1016A000E12CBAE08B2E912CA12CB12C6115710587
:1016B00030E883079105B0F1A50194010E94A026AE
:1016C000CA01B901E394F2CF2C8120782A602C83DF
:1016D0009B01AC0188279927DC01821B930BA40B8B
:1016E000B50B88839983AA83BB838F2DDF91CF911C
:1016F0001F910F91FF90EF90DF90CF90BF90AF9030
:101700009F908F907F906F905F904F9008952C8165
:10171000207828602C83688379838A839B83FF24C5
:10172000F394E3CFF801D8012D918D0130ED320F04
:101730003A3010F4E394F6CF2E3201F58F010F5FAB
:101740001F4FF8010F5F1F4F2081A0EDDA2ED20E40
:10175000B9E0BD1598F06C3CECEC7E07ECE08E0730
:10176000910578F7AAE0B0E09B01AC010E948D26BC
:101770006D0D711D811D911DEA94E3CF20812F7D98
:1017800010E000E0253409F05BC021812D32D1F555
:101790003296CC24C394DF0110E000E02E2D0E2CF5
:1017A000000C330B5AE0B52EFD01DD9040ED4D0DE0
:1017B0004A3008F040C0B09EA001B19E500D1124E7
:1017C0000D2DDD0C110B00531109040F151FA8017D
:1017D000420F531F473251053CF38C81CC20C9F096
:1017E00040E050E060E070E8F11003C040E050E0FD
:1017F000BA0180788C608C83488359836A837B83A9
:10180000FC2C73CF2B3219F03196C12CC4CF3296F9
:10181000FCCF40E050E060E87FEFF11004C040E012
:1018200050E060E87FE780788C608C834883598340
:101830006A837B8374CFCC2019F01195019511092F
:101840002081211135C00E0D111DE7FC1A950E9453
:10185000112830E8C32E30E0D32E101611063CF0CC
:1018600011950195110948E6C42E40E0D42EE12CD3
:101870000115110591F000FF0CC024E0E29EF0017B
:101880001124EC0DFD1D25913591459154910E9437
:10189000C82815950795E394EBCFF11090582C814B
:1018A00020782C602C83688379838A839B8337CF4D
:1018B000F12C1BCFCF92DF92EF92FF92CF93DF9369
:1018C00000D000D01F92CDB7DEB7FC0184818F77A6
:1018D000863091F030F4843040F560E070E0CB0168
:1018E0000FC08A30C9F08C3069F18830B1F760815F
:1018F00071818281938104C0608170E090E080E01A
:101900000F900F900F900F900F90DF91CF91FF905D
:10191000EF90DF90CF90089580819181A281B38173
:10192000B7FDDBCFBC01CD01EBCF808191811D8262
:10193000BE016F5F7F4F0E94F30ACE0101960E94A5
:101940005A0CDECFC080D180E280F38020E030E00E
:10195000A901C701B6010E94C32887FDBECF2FEFA2
:101960003FEF4FE75FE4C701B6010E9464271816F6
:101970000CF4B3CFC701B6010E94E227C1CFCF92CA
:10198000DF92EF92FF92CF93DF9300D000D01F92AF
:10199000CDB7DEB7FC01892B39F084818F77863093
:1019A000B9F028F4843088F590E080E013C08A30E4
:1019B000E9F08C30B9F18830B9F780819181A2814A
:1019C000B381811520E89207A105B10568F702C02F
:1019D000808190E00F900F900F900F900F90DF910B
:1019E000CF91FF90EF90DF90CF900895808191810B
:1019F000A281B381AC01BD0150586F4F7F4F41159B
:101A000051056140710580F6E5CF808191811D828D
:101A1000BE016F5F7F4F0E94F30ACE0101960E94C4
:101A2000BF0CD8CFC080D180E280F38020E030E0CE
:101A300040E057ECC701B6010E94C32887FDB4CF30
:101A400020E03EEF4FEF56E4C701B6010E94642745
:101A500018160CF4A9CFC701B6010E94DB27CB01F1
:101A6000B9CFCF93DF93DC01EB01EC81FD818A815B
:101A70009B810896E817F90740F481E08887F0E039
:101A8000E0E0CF01DF91CF9108953897FD83EC839B
:101A90003097B9F31296CD91DC911397209791F07E
:101AA000CF018C1B9D0B23E0959587952A95E1F737
:101AB0008D831396FC93EE931297158214821782EE
:101AC0001682DFCF1196FC93EE93F3CFEF92FF9245
:101AD0000F931F93CF93DF937C01DC0112962D911E
:101AE0003C911397ED91FC91AB01420F531FEF0115
:101AF000C60FD71FC217D307A0F4888181110BC06E
:101B0000E901CF014C175D0751F00991DC011D91EE
:101B1000CD010117B9F381918111FDCFE8CF309745
:101B200051F4620F731FCB010196F70193838283F7
:101B3000DB011C92F901CF01DF91CF911F910F9131
:101B4000FF90EF900895FC012581222339F0F8E001
:101B50002F0290011124820F931F089590E080E0DE
:101B600008958F929F92AF92BF920F931F93CF933E
:101B7000DF93CDB7DEB7A1970FB6F894DEBF0FBEE7
:101B8000CDBF19A2423008F44AE08E010F5D1F4F0D
:101B9000842E912CB12CA12CA50194010E94A02689
:101BA000E62FB901CA01EA3044F5E05DD801EE93B1
:101BB0008D01232B242B252B79F790E080E01097C3
:101BC00069F0FD0101900020E9F73197AF014A1B50
:101BD0005B0BBD018CEE94E00E944803A1960FB60A
:101BE000F894DEBF0FBECDBFDF91CF911F910F9153
:101BF000BF90AF909F908F900895E95CD7CF42E05F
:101C000050E068E971E08CEE94E00C944803CF93C7
:101C1000DF93809156028823A1F0C6E3D2E00990B9
:101C20000020E9F7C753D2408CEE94E00E94750380
:101C30008C179D0730F086E392E00E9431051092E8
:101C40005602DF91CF9108950F931F93CF93DF93A7
:101C5000FC01248125FF2FC0892B69F1EA0120971F
:101C600051F1808191818B01009729F1FC01A681BE
:101C7000B78130E020E0109749F0FD01019000208D
:101C8000E9F79F01215031092A1B3B0B201731072F
:101C900079F450E040E02417350779F0FE01E40FB5
:101CA000F51FE4916D91E61303C04F5F5F4FF3CFD3
:101CB0000E94A30DD9CF90E080E0DF91CF911F91DA
:101CC0000F910895CF93DF936115710589F1EB01B1
:101CD000FC0180819181009769F1FC01A681B781A7
:101CE000FE0101900020E9F73197AF014C1B5D0B1D
:101CF00030E020E0109749F0FD0101900020E9F765
:101D00009F01215031092A1B3B0B4217530769F4ED
:101D10009E01BA016C0F7D1F6217730759F0F9011C
:101D200051919F014D915417B9F30E94A30DD3CF48
:101D300090E080E0DF91CF9108959F92AF92BF92A3
:101D4000CF92DF92EF92FF920F931F93CF93DF9387
:101D5000EC017B01D42E0E94B0058C01892B09F087
:101D600048C0CE010E946C05863609F435C144F5A1
:101D7000873229F08B3581F1823209F036C18881B2
:101D800099819B838A83CE010E9425098C01892B2E
:101D900081F5E881F9811082288139814A815B814E
:101DA000C901019699838883F701848180788460D2
:101DB000848351834083241B350B3383228319C0D2
:101DC000843709F4F2C08B3709F453C08E3609F01A
:101DD0000CC166EA71E0F2C0F7018481807880640A
:101DE00084831182108213821282D1100FC005E009
:101DF00010E0C801DF91CF911F910F91FF90EF90FC
:101E0000DF90CF90BF90AF909F9008951886CE013D
:101E10000E94B005009709F01AC16DE5CE010E943D
:101E20007C058111E6CFDA9469857A85C7010E9425
:101E3000310D009709F408C14D2DBC01CE010E945F
:101E40009D0E009709F003C1CE010E94B0050097D6
:101E500009F0FDC06DE5CE010E947C058111C9CF5E
:101E60006CE2CE010E947C058111DECF03E010E020
:101E7000C0CFF701848180788062848311821082D0
:101E800013821282DD2009F4B2CF1886CE010E949F
:101E9000B005009709F0DBC06DE7CE010E947C051C
:101EA0008111A7CFDA94888199819B838A83CE019F
:101EB0000E946C058732D9F08232C9F0CE010E94AF
:101EC0006C05182F0E945A05882381F21886E88134
:101ED000F981CF010196998388831083CE010E94F6
:101EE0006C05182F0E945A058111F0CF07C0CE0152
:101EF0000E9425098C01892B09F07BCFCE010E941D
:101F0000B0058C01892B09F074CF6AE3CE010E94E1
:101F10007C05882309F4AACFE881F9811082088121
:101F200019816A817B81C7010E94620EBC01892BE5
:101F3000C1F4F80110820A811B8188819981019680
:101F40009983888369857A85C7010E94310DFC01D8
:101F5000892B09F479C084818F7784831783068362
:101F6000BF014D2DCE010E949D0E8C01892B09F0E1
:101F700040CFCE010E94B0058C01892B09F039CFEA
:101F80006DE7CE010E947C05811133CF6CE2CE015A
:101F90000E947C05882309F469CFCE010E94B00518
:101FA0008C01892B09F47FCF24CFF70184818078BD
:101FB0008660848381E080836BE971E0CE01DF91EC
:101FC000CF911F910F91FF90EF90DF90CF90BF9036
:101FD000AF909F900C948D05F70184818078866086
:101FE0008483108260EA71E0E9CFCE010E946C0523
:101FF0005E01FBE0AF0EB11CD12C9A2CCB2C8033B0
:1020000074F08A3374F49FE3D91699F01886D39448
:10201000F50181935F01CE010E946C05F0CF8B32F8
:1020200091F393ED980F923070F3982F9F7D953434
:1020300051F3CD0DD11D1B86B701892D9C2D0E941A
:10204000F30A8111D6CE12CF04E010E0D2CE8C017B
:10205000D0CE9F92AF92BF92CF92DF92EF92FF923B
:102060000F931F93CF93DF93EC017B01D42E0E943B
:10207000CB088C01892B09F052C0CE010E947D084B
:10208000863609F455C194F5873229F08B35D1F1A4
:10209000823209F056C1E881F981828193819B8364
:1020A0008A838481958122813381821B930B9F8354
:1020B0008E831D821C82892B11F481E08087CE01E2
:1020C0000E941C0A8C01892B51F5AC80BD80B501A2
:1020D000888199810E94660DF7012481207825600E
:1020E000248391838083B382A28219C0843709F448
:1020F00008C18B3709F453C08E3609F022C166EA55
:1021000071E008C1F7018481807880648483118242
:10211000108213821282D1100FC005E010E0C801B6
:10212000DF91CF911F910F91FF90EF90DF90CF90B3
:10213000BF90AF909F9008951E86CE010E94CB085D
:10214000009709F02DC16DE5CE010E94970881111D
:10215000E6CFDA946F857889C7010E94310D009728
:1021600009F46EC04D2DBC01CE010E9429100097CC
:1021700009F016C1CE010E94CB08009709F010C1EA
:102180006DE5CE010E9497088111C9CF6CE2CE01A6
:102190000E9497088111DECF03E010E0C0CFF70165
:1021A00084818078806284831182108213821282FB
:1021B000DD2009F4B2CF1E86CE010E94CB08009725
:1021C00009F0EEC06DE7CE010E9497088111A7CFFC
:1021D000BB24B394DA94E881F981828193819B8353
:1021E0008A838481958122813381821B930B9F8313
:1021F0008E831D821C82892B09F4B086CE010E9439
:102200007D08873201F18232F1F0CE010E947D0813
:10221000182F0E945A05882309F4BECF1E86612F0D
:10222000CE010E94020ACE010E947D08182F0E9452
:102230005A058111F3CFE881F9818085882351F017
:1022400004E010E06CCFCE010E941C0A8C01892BA7
:1022500009F065CFCE010E94CB088C01892B09F0D3
:102260005ECF6AE3CE010E949708882309F494CFD9
:10227000EA81FB818C819D81E80FF91F10820C811E
:102280001D816A817B81C7010E94620EBC01892B7E
:10229000A1F4B801888199810E94660D8C016F8537
:1022A0007889C7010E94310DFC01892B49F2848194
:1022B0008068848317830683BF014D2DCE010E9461
:1022C00029108C01892B09F02ACFCE010E94CB085E
:1022D0008C01892B09F023CF6DE7CE010E9497086E
:1022E00081111DCF6CE2CE010E949708882309F46A
:1022F00053CFCE010E94CB088C01892B09F46BCF00
:102300000ECFF701848180788660848381E08083AA
:102310006BE971E0CE01DF91CF911F910F91FF909A
:10232000EF90DF90CF90BF90AF909F900C94A80853
:10233000F7018481807886608483108260EA71E08E
:10234000E9CFCE010E947D085E01F1E1AF0EB11C24
:10235000D12C9A2CCB2C803374F08A3374F49FE305
:10236000D91699F01E86D394F50181935F01CE01B1
:102370000E947D08F0CF8B3291F393ED980F92304D
:1023800070F3982F9F7D953451F3CD0DD11D198A8F
:10239000B701892D9C2D0E94F30A8111C0CEFCCE7D
:1023A0008C01BDCE0F931F93CF93DF93CDB7DEB7D4
:1023B000C156D1090FB6F894DEBF0FBECDBF8C0158
:1023C000FC018081918193838283868197819583AB
:1023D000848310868585807885876C961FAF0EAFC5
:1023E0006C9788E0FE01E65AFF4FDE01AE5ABF4F00
:1023F00001900D928A95E1F788E0FE01EE5AFF4FB9
:10240000DE01119601900D928A95E1F719867B877E
:102410006A87460F572F511D5D874C871F86198B82
:10242000088BB801675F7F4F4AE0CE0101960E949A
:102430002910009749F42E85222331F0F8012585D3
:1024400023FF02C083E090E0CF59DF4F0FB6F8942E
:10245000DEBF0FBECDBFDF91CF911F910F910895C9
:10246000EF92FF920F931F93CF93DF93EC018C8138
:10247000982F9F7739F4807880628C831982188234
:102480001B821A828C8185FF1DC061157105D1F0F8
:102490007A018B01CE010E94620E009761F4B701B0
:1024A000CE010E94310D009731F0FC0124812F777D
:1024B000248317830683DF91CF911F910F91FF90A3
:1024C000EF90089590E080E0F6CF009729F0FC01AE
:1024D000248125FD0C94620E90E080E008950F9316
:1024E0001F93CF93DF93EC018B016A817B818881FD
:1024F000998109960E946512FC01892B31F0848133
:102500008F77883051F08A30F1F0F8018081918125
:10251000DF91CF911F910F91089580819181A281C8
:10252000B38181159048A105B10578F76A817B8157
:102530008881998109960E946512DF91CF911F9140
:102540000F910C94BF0C80819181A281B38190582E
:10255000AF4FBF4F0097A140B105B8F6E7CFFB01E1
:1025600001900020E9F73197AF01461B570B0C94FF
:102570000C081F93CF93DF93E7E8F1E0128111235A
:1025800079F0329621816213F9CFEC016CE50E945B
:10259000F407612FCE01DF91CF911F910C94F407C6
:1025A0006111F9CF6BEA71E0DF91CF911F910C942B
:1025B000AF122F923F924F925F926F927F928F92C3
:1025C0009F92AF92BF92CF92DF92EF92FF920F93C2
:1025D0001F93CF93DF93CDB7DEB76C970FB6F89408
:1025E000DEBF0FBECDBF8C011B01DC0114968C91A8
:1025F00014978F77863009F499C268F58230A0F17C
:102600001296ED90FC901397CC901196DC9084304C
:1026100008F05DC2A701B601C1010E940C08F101DA
:10262000848195816C960FB6F894DEBF0FBECDBF46
:10263000DF91CF911F910F91FF90EF90DF90CF909E
:10264000BF90AF909F908F907F906F905F904F90D2
:102650003F902F9008958C3069F160F4883009F430
:1026600060C28A3009F446C266EA71E0C1010E9484
:10267000AF12ECC1803209F4F3C18034A9F76BE5E5
:10268000C1010E94F407F8010081118101151105B3
:1026900009F4E1C1B101C8010E94D912C8010E9428
:1026A000A30D8C01892B09F4D6C16CE2C1010E94F3
:1026B000F407ECCFF801C080D180E280F380A7015D
:1026C0009601C701B6010E9464278111CDCF20E099
:1026D00030E0A901C701B6010E946427882379F080
:1026E000A7019601C701B6010E94F8269B01AC0123
:1026F000C701B6010E946427882309F4B5CF20E002
:1027000030E0A901C701B6010E94642787FF08C015
:102710006DE2C1010E94F407F7FAF094F7F8F09423
:1027200020E836E948E15BE4C701B6010E94C3280E
:1027300087FD88C074E1A72EB12C00E210E0188E4E
:102740001F8AF501E058FF4F65917591859194912D
:10275000A70196010E94642718169CF0F501E8591C
:10276000FF4F2591359145915491C701B6010E94C3
:10277000C8286B017C012F89388D200F311F388FBD
:102780002F8B1595079534E0A31AB1088CEFA81686
:102790008FEFB806B1F655245A9420E030E0A90135
:1027A000C701B6010E94C32818160CF052C02CEACB
:1027B00035EC47E257E3C701B6010E9464271816BB
:1027C0000CF447C0A52DB4E0AB02C0011124B12C1C
:1027D000A12CFC01E859FF4F3F019C0120583F4FBD
:1027E00049013FEF531609F434C0F301EA0DFB1D14
:1027F000659175918591949120E030E040E251E43B
:102800000E94C828A70196010E94C32818169CF4AC
:10281000F401EA0DFB1D2591359145915491C701B5
:10282000B6010E94C8286B017C018F89988D801B9E
:10283000910B988F8F8B159507955A9494E0A91A50
:10284000B108CFCF00E210E055E0552E188E1F8A58
:10285000A4CFC701B6010E94E2274B015C012B0106
:102860003C0106E080E492E4AFE0B0E0898F9A8F0B
:10287000AB8FBC8F102F01509AE0491651046104B0
:102880007104C8F0698D7A8D8B8D9C8D2AE030E0C3
:1028900040E050E00E94A026298F3A8F4B8F5C8F3A
:1028A000C301B2012AE030E040E050E00E94A026DF
:1028B00029013A01DFCFC501B4010E9411289B0113
:1028C000AC01C701B6010E94F7266B017C01698D3E
:1028D0007A8D8B8D9C8D0E9411289B01AC01C701C4
:1028E000B6010E94C8282B013C010E94E2276B011F
:1028F0007C010E9411289B01AC01C301B2010E941E
:10290000F7269B01AC010E94F8260E94E227C60E22
:10291000D71EE81EF91E898D9A8DAB8DBC8DC81609
:10292000D906EA06FB06D8F09FEF891A990AA90A88
:10293000B90AAF89B88DAB2B39F1BAE08B16910487
:10294000A104B10408F1EF89F88D3196F88FEF8B6F
:10295000C12CD12C7601812C912C540183942AE036
:10296000422E512C612C712CC701B601A30192019A
:102970000E94A026672B682B692B51F4111644F492
:1029800069017A011150F0CFC12CD12C7601E7CF2B
:10299000B501A401C1010E943108112371F14E015A
:1029A000F1E18F0E911C012F54019AE0492E512C18
:1029B000612C712C015068F0C701B601A30192018E
:1029C0000E94A026605DD4016E934D0169017A01D9
:1029D000F1CF812F90E0BC0160957095F501E81B67
:1029E000F90B31978EE2808344275527461B570BFE
:1029F0006A0D7B1DC1010E940C08EF89F88DEF2B39
:102A000029F165E6C1010E94F4070F89188D17FFAF
:102A100007C06DE2C1010E94F407119501951109EB
:102A2000FE0177969F018AE0E82EF12CC801B701DC
:102A30000E94DD26805D82938B01672BB9F7A90187
:102A40004E1B5F0BBF01C1010E940C08D1011496FF
:102A50008D919C91E7CD6DE5C1010E94F407F6CF01
:102A60006BE7C1010E94F407F80100811181011593
:102A7000110559F1D8011696CC9016971796DC904F
:102A800062E2C1010E94F4077601F70161917F01C2
:102A9000662321F0C1010E94B912F7CF62E2C101A1
:102AA0000E94F4076AE3C1010E94F407B101C80162
:102AB0000E94D912C8010E94A30D8C01892B29F014
:102AC0006CE2C1010E94F407D2CF6DE7C5CF62E28C
:102AD000C1010E94F4078601E00EF11EE016F10626
:102AE00039F0F80161918F01C1010E94B912F6CF4E
:102AF00062E2B2CFCD90DD90ED90FC90B701A601DF
:102B0000F7FE0BC06DE2C1010E94F4074427552770
:102B1000BA014C195D096E097F09C1010E94310893
:102B20007ECD4D915D916D917C91F7CF8C916BE94C
:102B300071E0811102C060EA71E0C1010E94AF1230
:102B40006ECD0F931F93CF93DF9300D000D000D0B2
:102B5000CDB7DEB78B019B01205C3F4F3A832983C1
:102B60007C836B831E821D820097B9F0BE016F5F6C
:102B70007F4F0E94D9128034910520F4F801E80FAC
:102B8000F91F108226960FB6F894DEBF0FBECDBF98
:102B9000DF91CF911F910F91089566EA71E0CE0108
:102BA00001960E94AF128D819E81E5CFFF920F9317
:102BB0001F93CF93DF93CDB7DEB7CE5CD1090FB6AD
:102BC000F894DEBF0FBECDBFF82E062F142FCE0116
:102BD00001960E94ED08AE014F5F5F4F62EB71E01E
:102BE000CE010A960E943012FC01892B29F09481B3
:102BF0009078966094830083011132C0AE014F5FDC
:102C00005F4F65EB71E0CE010A960E943012FC0125
:102C1000892B61F09481907898609483412F50E0E3
:102C200070E060E040835183628373831091990662
:102C3000AE014F5F5F4F69EB71E0CE010A960E94D3
:102C40003012FC01892B61F0948190789860948314
:102C5000812F90E0B0E0A0E080839183A283B383D2
:102C6000BE01615B7F4FCE010A960E94A1158E01C5
:102C700001571F4F282FAE01415B5F4F6F2D82E838
:102C80000E94EF05882359F0482F50E0B8018CEEE0
:102C900094E00E9448038CEE94E00E945504C253D5
:102CA000DF4F0FB6F894DEBF0FBECDBFDF91CF91DF
:102CB0001F910F91FF900895CF92DF92EF92FF92B4
:102CC000CF93DF936C01990FEE08FF08F7FE17C052
:102CD0008DE20E945004EC0166277727CB016C1926
:102CE0007D098E099F094AE00E94B10D8C0F9D1F3E
:102CF000DF91CF91FF90EF90DF90CF9008954AE061
:102D0000C701B601DF91CF91FF90EF90DF90CF9098
:102D10000C94B10D1F93CF93DF9385ED8093BC008E
:102D200080915B0290915C02A0915D02B0915E0285
:102D30000796A11DB11D23E0B695A7959795879598
:102D40002A95D1F72091BC0024FD03C01092A30264
:102D500052C040915B0250915C0260915D027091A3
:102D60005E02452B462B472B69F30097A105B10561
:102D700041F02AE22A95F1F700C00197A109B109B3
:102D8000E1CF80915A02C1E0C0935902882399F1A2
:102D9000D091B8001091BA008091BC008A7B8093DA
:102DA000BC0060E082E10E94090160E083E10E94D2
:102DB00009011092A302C093A5021092A40261E03F
:102DC00082E10E94090161E083E10E940901809192
:102DD000B9008E7F8093B9008091B9008D7F809378
:102DE000B90088E48093B80085E48093BC00109318
:102DF000BA00D093B800DF91CF911F9108950F933F
:102E00001F93CF93DF93CDB7DEB7A0970FB6F8949B
:102E1000DEBF0FBECDBF8E010F5F1F4F009741F188
:102E2000FC012081222321F19F938F9386EC91E076
:102E30009F938F931F9280E28F931F930F930E9413
:102E40004B290FB6F894DEBF0FBECDBFC8010E945C
:102E500031058CEE94E00E945504A0960FB6F894CC
:102E6000DEBF0FBECDBFDF91CF911F910F910895AF
:102E70006FEC71E0C8010E943529E8CFCF93DF9352
:102E8000EC010E946526BE01DF91CF910895CF939A
:102E9000DF93EC01CB010E943E17AB01BC01CE01D8
:102EA00009960E94240E21E0892B09F420E0822F4C
:102EB000DF91CF9108950F931F93CF93DF93CDB7F9
:102EC000DEB7C95BD1090FB6F894DEBF0FBECDBF28
:102ED000A895CE010F969A8389839C838B838FE676
:102EE00090E08C0F9D1F9E838D8398878F8319861A
:102EF0001E8680E090E0DC018DED95E0E3968CAFDE
:102F00009DAFAEAFBFAFE397E4961FAEE497E696F2
:102F10009FAF8EAFE697E8961FAEE8978E010F5FE2
:102F20001F4FEA961FAF0EAFEA974AE0BE01665FF9
:102F30007F4FCE0181599F4F0E949D0E892B49F4EE
:102F4000E7968FADE797882309F4F3C08E8583FF5A
:102F5000F0C08091D7029091D80201969093D80248
:102F60008093D702109221061092200610921F061D
:102F700010921E0680E0C754DF4F0FB6F894DEBFF4
:102F80000FBECDBFDF91CF911F910F91089520917A
:102F9000D7023091D8022F5F3F4F3093D802209351
:102FA000D702109221061092200610921F0610924E
:102FB0001E06E1CF608171816115710509F4EDC0D4
:102FC00047E050E085E296E00E943C2910922C06F2
:102FD0006DE071E0C8010E944717882309F48DC095
:102FE0008AE091E00E943E17AB01BC01CE010A9637
:102FF0000E94240E0E94BF0C90932E0680932D06F3
:1030000067E071E0C8010E944717882309F478C07F
:1030100084E091E00E943E17AB01BC01CE010A960C
:103020000E94240E0E94BF0C9093300680932F06BE
:1030300061E071E0C8010E944717882309F463C06A
:103040008EEF90E00E943E17AB01BC01CE010A96C4
:103050000E94240E0E94BF0C90933206809331068A
:103060006BEF70E0C8010E944717882309F44EC037
:1030700088EF90E00E943E17AB01BC01CE010A969A
:103080000E94240E0E94BF0C909334068093330656
:1030900066EF70E0C8010E94471781113AC060E0F6
:1030A00070E0CB0160933506709336068093370647
:1030B000909338062091230630912406832F809523
:1030C000881F8827881F8093390637FD0AC00E9411
:1030D0009F026093DD027093DE028093DF02909383
:1030E000E002109221061092200610921F06109204
:1030F0001E06A895809139063ECF90E080E07CCFF7
:1031000090E080E091CF90E080E0A6CF90E080E07A
:10311000BBCF84EF90E00E943E17AB01BC01CE0113
:103120000A960E94240E009709F4B9CF0E945A0C07
:10313000B9CF66E171E0C8010E944717882309F4FE
:1031400026CF84E191E00E943E17AB01BC01CE0185
:103150000A960E94240E0E94BF0C9093240680932E
:10316000230662E171E0C8010E9447178823A9F095
:1031700080E191E00E943E17AB01BC01CE010A96AE
:103180000E94240EFC01892B41F084818F778430CA
:1031900009F410CF853009F40DCF1092250618CF11
:1031A0002F923F924F925F926F927F928F929F9257
:1031B000AF92BF92CF92DF92EF92FF920F931F9345
:1031C000CF93DF93CDB7DEB7CF56D1090FB6F894C2
:1031D000DEBF0FBECDBFA8950E94070E0E949F02C2
:1031E0004B015C01712CF3E0EF2EF12C01E010E0BB
:1031F00066246394AAEA5A2E8CEE94E00E94A603F9
:103200001816190684F4E0E3CE2E7C1461F00E94B7
:103210009F02681979098A099B0966307105810541
:103220009105E0F0A895A895C159DF4F0FB6F89425
:10323000DEBF0FBECDBFDF91CF911F910F91FF90E9
:10324000EF90DF90CF90BF90AF909F908F907F9046
:103250006F905F904F903F902F9008958CEE94E088
:103260000E9484037394972D977009F4A8958A3A65
:10327000A9F48091A1069091A206892B31F01092B9
:10328000D4061092D5061092F9065092A3066092C9
:10329000D3061093A2060093A106AECF209120067C
:1032A000309121062130310511F188F022303105AD
:1032B00009F4C6C02330310509F09ECF10922106D3
:1032C0001092200610921F0610921E0695CF8B3783
:1032D00009F092CF8093DD0510931F0600931E0620
:1032E00010932106009320061092220685CF8D3779
:1032F00009F075C020911E0630911F06203431055B
:1033000008F063C0A9014F5F5F4F50931F064093C1
:103310001E0625543A4FD90192968C9345545A4F24
:10332000FA0112A2F0922106E09220060E945B1799
:10333000882309F461CF80913906882309F45CCF92
:1033400087E1E3E2F6E0DE01AF5ABF4F01900D9254
:103350008A95E1F7109221061092200610921F061E
:1033600010921E061092DD05109222061092390668
:103370008FEF9FEF909324068093230610922506EB
:1033800010922E0610922D061092300610922F06E3
:1033900010923206109231061092340610923306C3
:1033A00010923506109236061092370610923806A3
:1033B000A89563968EAD9FAD6397009709F047C0BF
:1033C00085ED91E00E9431052ECF8091D50290913C
:1033D000D60201969093D6028093D5026FCF8A30A1
:1033E00011F08D3081F4E0911E06F0911F06E2305D
:1033F000F10508F463CFE554FA4F12A281A18D378D
:1034000009F05CCF8FCF8B3739F48093DD05309393
:103410001F0620931E06F0CE20911E0630911F0637
:103420002034310590F6A9014F5F5F4F50931F067E
:1034300040931E0625543A4FD90192968C93DCCEC8
:10344000609222061092210610922006D5CE88376F
:10345000910509F093C08CEE94E00E9475034497A7
:10346000D4F188E990E00E943504809100010E9427
:10347000500480913402909135020E945C168CE2D7
:103480000E94500480913202909133020E945C1697
:103490008CE20E94500483E00E94E0000E945C16CF
:1034A0008CE20E9450046091810670E090E080E020
:1034B0004AE00E94B10D8CE20E9450046091C90262
:1034C00070E090E080E04AE00E94B10D8DE70E943C
:1034D00050040E94FF0D0E949F020091DD02109196
:1034E000DE022091DF023091E00201151105210575
:1034F000310509F43FC0DC01CB01801B910BA20B0D
:10350000B30BBF93AF939F938F938091DC028F9304
:103510008091DB028F938091DA028F938091D902A0
:103520008F938091D8028F938091D7028F9380914F
:10353000D6028F938091D5028F938091D4028F937E
:103540008091D3028F9381EE91E09F938F931F928E
:1035500080E58F938E010F5F1F4F1F930F930E9483
:103560004B29C8010E9431050FB6F894DEBF0FBE8B
:10357000CDBF59CE80E090E0DC01C3CF883C9105FF
:103580000CF4CBC2A89563968EAD9FAD6397823D38
:10359000910509F4D4C114F5883C910509F480C063
:1035A000893C910509F479C181E590E08C0F9D1F5C
:1035B00002969F938F938FE092E09F938F931F9239
:1035C00080E28F938E010F5F1F4F1F930F930E9416
:1035D0004B29C8010E943105A895C6CF833D9105AE
:1035E00009F498C2873E9340F9F684E48093000181
:1035F00083E090E090938206809381061092760695
:1036000061E00E9409016D96AEACBFAC6D9775018B
:103610009FEFA916B10421F01CF0EE24EA94F12CDE
:10362000A1E0EA16AFEFFA0624F4EE24E394FF24B7
:10363000FA946F968EAD9FAD6F978130BFEF9B0769
:103640000CF46CC18C018F3F910519F014F00FEF51
:1036500010E0181619060CF057C161E087E00E94CF
:103660000901B80117FF04C066277727601B710B9B
:1036700085E00E9473011A141B040CF052C161E032
:1036800088E00E940901B70186E00E947301F09270
:103690003502E092340210933302009332022CC1BF
:1036A000809176068111109276068CEA97E00E944E
:1036B000E8076D962EAC3FAC6D972FEF22163104C4
:1036C00021F01CF022242A94312C31E023163FEF04
:1036D000330624F42224239433243A946F960EADB7
:1036E0001FAD6F970F3F110519F014F00FEF10E0A9
:1036F00001304FEF140714F401E01FEFA7968CACD4
:103700009DACAEACBFACA79751E1851657E29506CC
:10371000A104B10430F050E1852E57E2952EA12C82
:10372000B12C86E988169104A104B10428F446E975
:10373000842E912CA12CB12C0E949F0220918106F5
:1037400030918206E0917F06F091800621303105AC
:1037500009F092C0309709F48FC040908B065090CA
:103760008C0660908D0670908E06411451046104A1
:10377000710409F481C06B017C01C418D508E60806
:10378000F708AC96CCAEDDAEEEAEFFAEAC972091B6
:103790008706309188064091890650918A06E09606
:1037A0002CAF3DAF4EAF5FAFE09760938B06709349
:1037B0008C0680938D0690938E06C216D306E4067F
:1037C000F50608F061C0641575058605970508F4CF
:1037D0005BC0BA01A901480D591D6A1D7B1D4C191A
:1037E0005D096E097F0940938706509388066093B0
:1037F000890670938A06309284062092830610937D
:1038000086060093850621E030E0309382062093FF
:103810008106309709F406CDCF010E94E807B10177
:10382000601B710B6F3F710519F014F06FEF70E0C2
:1038300061303FEF730714F461E07FEFA801420DA0
:10384000531D4F3F510519F014F04FEF50E0413038
:103850008FEF580714F441E05FEF70939006609388
:103860008F06509392064093910680917F06909127
:1038700080060E948506D6CC60938B0670938C06DA
:1038800080938D0690938E0680928706909288068C
:10389000A0928906B0928A06AECF88E58093000197
:1038A00010923502109234021092330210923202BA
:1038B000109282061092810610928406109283065E
:1038C00010928606109285061092900610928F062E
:1038D00010929206109291061092760670E060E0C7
:1038E00085E00E94730170E060E086E00E94730151
:1038F00060E083E00E94090181E590E08C0F9D1F4C
:1039000002960E94FF168ECC70E060E0892B09F4CD
:10391000AFCE60E087E00E940901A6CE01E01FEF74
:10392000F8CF70E060E0AB2809F4AECE60E088E04C
:103930000E940901662777276E197F09A5CE10928C
:1039400082061092810610928406109283061092CD
:103950008606109285061092900610928F0610929D
:103960009206109291068CEA97E00E94E8076D9605
:103970000EAD1FAD6D97C8010197049708F0ACC05C
:103980006F96EEACFFAC6F97A7968CAC9DACAEACCF
:10399000BFACA797E1E18E16E7E29E06A104B10451
:1039A00030F090E1892E97E2992EA12CB12CF8EEFF
:1039B0008F16F3E09F06A104B10430F488EE882E40
:1039C00083E0982EA12CB12C109368060093670613
:1039D000109269060E949F0260936A0670936B06BC
:1039E00080936C0690936D060E949F0260937B0605
:1039F00070937C0680937D0690937E068092770676
:103A000090927806A0927906B0927A0681E080932F
:103A100076060330110559F00430110509F456C03B
:103A20000230110509F055C00DE311E002C005E1B7
:103A300011E0F80184819581A681B78180936E069B
:103A400090936F06A0937006B0937106B701772725
:103A5000072E000C880B990B0E94132820E030E001
:103A60004FE753E40E9469274B015C01D8016D9137
:103A70007C91072E000C880B990B0E941328A5013E
:103A800094010E94C8280E94DB27709373066093FC
:103A90007206F80162817381072E000C880B990B66
:103AA0000E941328A50194010E94C8280E94DB27C8
:103AB0007093750660937406809165069091660612
:103AC000009709F419CF0E94E80716CF05E011E02E
:103AD000B0CF0DE411E0ADCF81E590E08C0F9D1FDC
:103AE00002969F938F938FE092E09F938F931F9204
:103AF00080E28F938E010F5F1F4F1F930F930E94E1
:103B00004B29C8010E9431050FB6F894DEBF0FBEE5
:103B1000CDBF88CB10927606EFCE8436910519F092
:103B20008E369105E9F41092820610928106109269
:103B300084061092830610928606109285061092D3
:103B4000900610928F061092920610929106109293
:103B500076068CEA97E00E9468068FEC91E032CC02
:103B60008230910509F45FCB079709F45CCB64962A
:103B70008FAD6497882389F381E590E08C0F9D1FBA
:103B800002960E94FF164FCBCF92DF92EF92FF92E8
:103B90000F931F930E949F026B017C0180919F07EE
:103BA0009091A007A091A107B091A207B701A6012B
:103BB000481B590B6A0B7B0B8091A50790E0B0E086
:103BC000A0E0481759076A077B0708F45DC060E06A
:103BD0008DE00E94090183E090E00197F1F761E038
:103BE0008DE00E94090183E290E00197F1F760E027
:103BF0008DE00E940901E8EDF0E06491E4ECF0E072
:103C0000E491F0E0EE0FFF1FE255FF4F8591949194
:103C100000E315E720E030E0462F0E9416216115F1
:103C2000710581059105C1F16F5F7F4F8F4F9F4FE8
:103C30009F70611571058105910571F10E94112830
:103C400028E23EE74CE05DE30E94C82820E030E037
:103C500040E05FE30E94C8280E94E227693C7105AA
:103C600010F068EC70E06230710510F462E070E012
:103C70007093A4076093A307C0929F07D092A007F8
:103C8000E092A107F092A2071F910F91FF90EF9091
:103C9000DF90CF900C940E0270E060E0E9CF1F92AD
:103CA0000F920FB60F9211242F933F938F939F93F0
:103CB000AF93BF938091CB029091CC02A091CD02A3
:103CC000B091CE023091CA0223E0230F2D3758F570
:103CD0000196A11DB11D2093CA028093CB0290933F
:103CE000CC02A093CD02B093CE028091CF029091EE
:103CF000D002A091D102B091D2020196A11DB11DB6
:103D00008093CF029093D002A093D102B093D202BD
:103D1000BF91AF919F918F913F912F910F900FBEC7
:103D20000F901F90189526E8230F0296A11DB11D34
:103D3000D2CF1F920F920FB60F9211242F933F9361
:103D40004F935F936F937F938F939F93AF93BF93A3
:103D5000EF93FF93E0910301F09104010995FF9126
:103D6000EF91BF91AF919F918F917F916F915F91F3
:103D70004F913F912F910F900FBE0F901F9018956C
:103D80001F920F920FB60F9211242F933F934F93D0
:103D90005F936F937F938F939F93AF93BF93EF93B3
:103DA000FF93E0910101F09102010995FF91EF91DC
:103DB000BF91AF919F918F917F916F915F914F9143
:103DC0003F912F910F900FBE0F901F9018951F924B
:103DD0000F920FB60F9211242F933F934F935F933F
:103DE0006F937F938F939F93AF93BF93EF93FF93C3
:103DF0008CEE94E00E94C603FF91EF91BF91AF91CA
:103E00009F918F917F916F915F914F913F912F91F2
:103E10000F900FBE0F901F9018951F920F920FB624
:103E20000F9211242F938F939F93EF93FF93E09121
:103E3000FC04F091FD048081E0910205F0910305FE
:103E400082FD1BC09081809105058F5F8F7320914B
:103E50000605821741F0E0910505F0E0E451FB4FC3
:103E6000958F80930505FF91EF919F918F912F91F1
:103E70000F900FBE0F901F9018958081F4CF1F9266
:103E80000F920FB60F9211242F933F934F935F938E
:103E90006F937F938F939F93AF93BF93EF93FF9312
:103EA0008091B900887F803609F44AC0F0F58832E5
:103EB00009F4A5C018F5803109F499C0B8F4882335
:103EC00009F4F5C0883009F492C0FF91EF91BF91D9
:103ED000AF919F918F917F916F915F914F913F91A2
:103EE0002F910F900FBE0F901F901895883109F4F5
:103EF00086C0803251F78093A20214C0803409F446
:103F00009BC040F48033B9F38833F9F68093A20262
:103F100085ECAEC0803509F483C0883509F494C0BF
:103F2000883499F60E948A16D0CF883909F48AC05D
:103F300038F5883729F050F4883611F0803729F6A3
:103F400083E08093A3021092A10255C0883809F43F
:103F500079C0803919F0803809F0B7CF8091A1027B
:103F6000803208F06FC0E091A10281E08E0F809353
:103F7000A1028091BB00F0E0EF57FD4F80833BC072
:103F8000803B39F0D0F4803A09F477C0883A09F0E0
:103F90009CCF84E08093A3021092800210927F0253
:103FA000F0E0E0E0099580917F0281110FC081E08F
:103FB00080937F0210925F0209C0803C09F4A8CF71
:103FC000883C09F4A5CF883B09F07FCFE0918002BF
:103FD00081E08E0F80938002F0E0E15AFD4F8081F6
:103FE0008093BB009091800280917F0229C08091D4
:103FF000C8028093BB0085EC8093BC0066CF909193
:10400000C7028091C602981758F5E091C70281E077
:104010008E0F8093C702F0E0EA55FD4F8081E9CF13
:10402000E091C70281E08E0F8093C7028091BB00B0
:10403000F0E0EA55FD4F80839091C7028091C6025F
:104040009817C8F285E8D8CFE091C70281E08E0FBB
:104050008093C7028091BB00F0E0EA55FD4F80835A
:104060008091A50281115ECF81E08093A40284EA51
:104070008093BC001092A30228CF85EC8093BC00F3
:104080001092A3028091A102803230F4E091A1024B
:10409000F0E0EF57FD4F10826091A10270E081E8DF
:1040A00092E0F0E0E0E009951092A1020ECF1092AC
:1040B000A20238CF1F920F920FB60F9211242F93A6
:1040C0003F934F935F936F937F938F939F93AF93A0
:1040D000BF93CF93DF93EF93FF9380915702C091EB
:1040E000BA05D0E087FF24C01092850010928400AA
:1040F000809157028F5F8093570280915702082E5C
:10410000000C990B8C179D0724F4809157028C307A
:10411000C4F18091840090918500049680349C497C
:1041200008F47AC08091840090918500049676C04E
:1041300080915702082E000C990B8C179D07C4F62E
:10414000E09157028E2FEE0F990BFC01EE0FFF1F2F
:10415000E80FF91FEA56FA4F808186FFC9CFE09138
:1041600057028E2FEE0F990BFC01EE0FFF1FE80F89
:10417000F91FEA56FA4F808160E08F730E940901AF
:10418000B7CF2091840030918500E09157028E2FA7
:10419000EE0F990BFC01EE0FFF1FE80FF91FEA5617
:1041A000FA4F81819281820F931F909389008093AF
:1041B0008800E09157028E2FEE0F990BFC01EE0F55
:1041C000FF1FE80FF91FEA56FA4F808186FF11C0E2
:1041D000E09157028E2FEE0F990BFC01EE0FFF1F9F
:1041E000E80FF91FEA56FA4F808161E08F730E9451
:1041F0000901FF91EF91DF91CF91BF91AF919F9115
:104200008F917F916F915F914F913F912F910F907F
:104210000FBE0F901F90189580E49CE99093890041
:10422000809388008FEF80935702E3CFCF92DF9285
:10423000EF92FF920F931F93E82FF92F05C00150C3
:1042400011092109310961F1908196239417B9F37D
:1042500005C0015011092109310911F190819623FE
:104260009413F7CFC12CD12CE12CF12C0AC08FEF85
:10427000C81AD80AE80AF80A0C151D052E053F05CC
:1042800079F080818623841791F36C2D7D2D8E2DFE
:104290009F2D1F910F91FF90EF90DF90CF90089589
:1042A00060E070E080E090E01F910F91FF90EF9050
:1042B000DF90CF9008951092EF041092EE0488EEF4
:1042C00093E0A0E0B0E08093F0049093F104A09319
:1042D000F204B093F30489E791E09093ED048093A6
:1042E000EC0485EC90E09093F9048093F80484EC5E
:1042F00090E09093FB048093FA0480EC90E090931C
:10430000FD048093FC0481EC90E09093FF04809383
:10431000FE0482EC90E0909301058093000586EC0A
:1043200090E090930305809302051092050510928A
:10433000060510920705109208059FEF90938905D6
:1043400010928B0510928A05109295051092940593
:104350004FEF5FEFBA014093900550939105609342
:1043600092057093930510928C0510928D05109212
:104370008E0510928F051092AD071092AC07109227
:10438000AF071092AE071092B1071092B0071092CB
:10439000B3071092B20785E08093B4078AE0809358
:1043A000B5071092B6078091BA058C3008F080C12D
:1043B00091E0980F9093BA058093A60790E0FC01D6
:1043C000EE0FFF1FE80FF91FEA56FA4F88EB9BE04C
:1043D000928381838AE58093A9071092AA0784EBD0
:1043E0008093AB0710929F071092A0071092A1072D
:1043F0001092A2071092A4071092A30784E680935C
:10440000A50780E092E0909397078093960790939A
:1044100099078093980790939B0780939A079093AE
:104420009D0780939C0710929E0710927D07109223
:104430007F0710927E0710928107109280071092DA
:1044400083071092820710928507109284071092BA
:10445000870710928607109289071092880710929A
:104460008B0710928A0710928D0710928C0710927A
:104470008F0710928E07109291071092900710925A
:10448000920710929307109294071092950788EE66
:104490009CE190937A078093790710927B071092A2
:1044A0007C0710926D0710926E0710926F0784E1DF
:1044B0008093700710927407109275071092760718
:1044C000109277071092780710926707109268078A
:1044D0001092690710926A0710926B0710926C078E
:1044E000109262071092630710926407109265079A
:1044F00010926607EAEFF6E01182108212821382B0
:1045000014821582168217821086118612861486EE
:1045100013863D9687E0E236F80771F71092A206FF
:104520001092A1061092D3061092D4061092D506CE
:104530001092F90681E08093A006109294061092E2
:104540009306109296061092950610929806109275
:10455000970610929A061092990610929B06109256
:104560009C0610929D0610929E0610929F06109235
:10457000800610927F061092820610928106109299
:10458000900610928F061092920610929106109249
:104590008406109283061092860610928506109269
:1045A0008706109288061092890610928A06109249
:1045B0008B0610928C0610928D0610928E06109229
:1045C0006606109265061092760681E090E0909360
:1045D0006806809367061092690610926A06109228
:1045E0006B0610926C0610926D0610926E06109279
:1045F0006F06109270061092710610927306109258
:104600007206109275061092740610927706109238
:1046100078061092790610927A0610927B06109214
:104620007C0610927D0610927E0610926206109211
:10463000630610926406EAE3F6E011921192119279
:10464000119286E0E236F807C1F71092DB0510926E
:10465000DC0510921F0610921E0610922106109281
:104660002006109222061092DD05109239068FEF77
:104670009FEF9093240680932306109225061092B4
:104680002E0610922D061092300610922F061092D0
:1046900032061092310610923406109233061092B0
:1046A0003506109236061092370610923806089595
:1046B0009093A6078FCE789484B5826084BD84B52C
:1046C000816084BD85B5826085BD85B5816085BD0D
:1046D00080916E00816080936E00109281008091C5
:1046E000810082608093810080918100816080934D
:1046F0008100809180008160809380008091B10072
:1047000084608093B1008091B00081608093B0009C
:1047100080917A00846080937A0080917A00826030
:1047200080937A0080917A00816080937A008091F2
:104730007A00806880937A001092C1008091C9024B
:104740008F5F8093C902E091FC04F091FD0482E048
:104750008083E091F804F091F9041082E091FA046A
:10476000F091FB0480E1808310920405E091000544
:10477000F091010586E08083E091FE04F091FF0452
:10478000808180618083E091FE04F091FF0480814C
:1047900088608083E091FE04F091FF04808180684E
:1047A0008083E091FE04F091FF0480818F7D8083FF
:1047B00061E085E00E94370161E086E00E943701F8
:1047C00061E087E00E94370161E088E00E943701E4
:1047D00061E083E00E94370160E083E00E9409010C
:1047E0001092B60770E060E085E00E94730170E00F
:1047F00060E086E00E9473011092B1071092B0074A
:104800001092B3071092B2071092AD071092AC0746
:104810001092AF071092AE0770E060E085E00E9452
:10482000730170E060E086E00E9473011092B607A9
:1048300060E081E10E9437010E940E028091A6078C
:104840008C3008F051C061E08AE00E94370180910D
:10485000A607282F30E0F901EE0FFF1FE20FF31F2C
:10486000EA56FA4F9081907C9A6090831092A70745
:104870001092A8072CE0622F0E94D126829FB001DF
:10488000112430E020E0AB01420F531FFA01EE0F7C
:10489000FF1FE40FF51FEA56FA4F908196FD16C0F0
:1048A0002F5F3F4F2C30310571F781110FC01092EF
:1048B000800082E080938100109285001092840035
:1048C000B19A80916F00826080936F00E091A6079B
:1048D0008E2F90E0FC01EE0FFF1FE80FF91FEA5644
:1048E000FA4F8081806480836091A90770E086EA36
:1048F00097E00E94C90461E08DE00E94370160E00A
:104900008CE00E94370160E08DE00E940901109266
:104910009F071092A0071092A1071092A20760E0D3
:1049200080E10E94370160E08FE00E94370160E083
:104930008EE00E943701CAE0C12CD12C7601812C77
:10494000912C5401412C512C320180E10E94FC0138
:10495000092E000CAA0BBB0B480E591E6A1E7B1EAB
:104960008FE00E94FC01092E000CAA0BBB0B880EE5
:10497000991EAA1EBB1E8EE00E94FC01092E000C8F
:10498000AA0BBB0BC80ED91EEA1EFB1E6AE070E024
:1049900080E090E00E946D02C150B9F6C301B201FF
:1049A0002AE030E040E050E00E94A02630939907D2
:1049B00020939807C501B4012AE030E040E050E0C0
:1049C0000E94A02630939B0720939A07C701B60147
:1049D0002AE030E040E050E00E94A02630939D079E
:1049E00020939C0762E082E00E94370182E00E94EF
:1049F000E00021E0892B09F420E020936707209351
:104A000068078CEA97E09093800680937F06109267
:104A10008206109281061092900610928F061092D4
:104A20009206109291069093660680936506109206
:104A30007606109262061092630610926406EAE30C
:104A4000F6E0119211921192119226E0E236F207ED
:104A5000C1F7109262070E949F02609363077093F0
:104A6000640780936507909366078091620788309A
:104A7000F8F43DE0839FF0011124E650F94F27EC54
:104A800036E03183208344E150E060E070E042830F
:104A9000538364837583168217821086118691E092
:104AA00092872BE132E0348723878F5F8093620700
:104AB000809162078830F8F44DE0849FF001112462
:104AC000E650F94F26E433E03183208344E150E09F
:104AD00060E070E04283538364837583168217829B
:104AE0001086118691E0928720E232E03487238796
:104AF0008F5F80936207809162078830F8F45DE0F1
:104B0000859FF0011124E650F94F24EC3DE13183FB
:104B1000208344E650E060E070E042835383648386
:104B20007583168217821086118691E0928727E29C
:104B300032E0348723878F5F80936207809162071A
:104B40008830F8F49DE0899FF0011124E650F94F78
:104B500020ED38E13183208341E050E060E070E0F7
:104B6000428353836483758316821782108611866D
:104B700091E092872EE232E0348723878F5F809323
:104B800062071092A2061092A1061092D30610920C
:104B9000D4061092D5061092F90688E199E20FB674
:104BA000F894A895809360000FBE90936000A8953C
:104BB0008CEE94E00E947503029754F062E58CEE4F
:104BC00094E00E94E8036AE08CEE94E00E94E8031F
:104BD000A8950DE080E0A82E80E0B82EA8950E9450
:104BE0009F026B017C018091630790916407A09103
:104BF0006507B0916607A7019601281B390B4A0B80
:104C00005B0BDA01C90185369105A105B10548F0B4
:104C1000A895C0926307D0926407E0926507F0926E
:104C2000660710E0809162071817D0F5019FE00138
:104C30001124C650D94F8A85882381F188819981B2
:104C4000892B61F18E819F81A885B985B701A60165
:104C5000481B590B6A0B7B0B8A819B81AC81BD8100
:104C6000481759076A077B07C8F0A895C0926307E1
:104C7000D0926407E0926507F0926607E881F981B7
:104C80000995CE82DF82E886F986A895C0926307EF
:104C9000D0926407E0926507F09266071F5FC2CF6B
:104CA0000E94070EA89561E070E080E090E00E940D
:104CB0006D02A114B10409F491CF0E94B2038823BC
:104CC00009F48CCF0E94000089CFFC0105900020E0
:104CD000E9F7809590958E0F9F1F0895052E97FBFD
:104CE0001EF400940E94852657FD07D00E94A0263E
:104CF00007FC03D04EF40C948526509540953095D2
:104D000021953F4F4F4F5F4F089590958095709537
:104D100061957F4F8F4F9F4F08950E94C226A59F98
:104D2000900DB49F900DA49F800D911D11240895A6
:104D3000B7FF0C948D260E948D26821B930B08953D
:104D4000A1E21A2EAA1BBB1BFD010DC0AA1FBB1F8F
:104D5000EE1FFF1FA217B307E407F50720F0A21B01
:104D6000B30BE40BF50B661F771F881F991F1A946E
:104D700069F760957095809590959B01AC01BD0198
:104D8000CF010895A29FB001B39FC001A39F700DF2
:104D9000811D1124911DB29F700D811D1124911D43
:104DA0000895991B79E004C0991F961708F0961B87
:104DB000881F7A95C9F780950895AA1BBB1B51E1FE
:104DC00007C0AA1FBB1FA617B70710F0A61BB70B7B
:104DD000881F991F5A95A9F780959095BC01CD0120
:104DE0000895EE0FFF1F0590F491E02D099450589F
:104DF000BB27AA270E940F270C9489280E947B2892
:104E000038F00E94822820F039F49F3F19F426F4EC
:104E10000C9478280EF4E095E7FB0C947228E92FA7
:104E20000E949A2858F3BA176207730784079507F8
:104E300020F079F4A6F50C94BC280EF4E0950B2E26
:104E4000BA2FA02D0B01B90190010C01CA01A001DC
:104E50001124FF27591B99F0593F50F4503E68F137
:104E60001A16F040A22F232F342F4427585FF3CF78
:104E7000469537952795A795F0405395C9F77EF449
:104E80001F16BA0B620B730B840BBAF09150A1F092
:104E9000FF0FBB1F661F771F881FC2F70EC0BA0F18
:104EA000621F731F841F48F4879577956795B795A0
:104EB000F7959E3F08F0B0CF9395880F08F099279B
:104EC000EE0F9795879508950E944E2808F481E08B
:104ED00008950E947D270C9489280E94822858F00A
:104EE0000E947B2840F029F45F3F29F00C9472283F
:104EF00051110C94BD280C9478280E949A2868F3CC
:104F00009923B1F3552391F3951B550BBB27AA2782
:104F100062177307840738F09F5F5F4F220F331FBC
:104F2000441FAA1FA9F335D00E2E3AF0E0E832D084
:104F300091505040E695001CCAF72BD0FE2F29D087
:104F4000660F771F881FBB1F261737074807AB0759
:104F5000B0E809F0BB0B802DBF01FF2793585F4FCE
:104F60003AF09E3F510578F00C9472280C94BD28BD
:104F70005F3FE4F3983ED4F3869577956795B795B0
:104F8000F7959F5FC9F7880F911D9695879597F9BB
:104F90000895E1E0660F771F881FBB1F6217730734
:104FA0008407BA0720F0621B730B840BBA0BEE1F49
:104FB00088F7E09508950E94E2276894B1110C9457
:104FC000BD2808950E94A22888F09F5798F0B92F15
:104FD0009927B751B0F0E1F0660F771F881F991F2E
:104FE0001AF0BA95C9F714C0B13091F00E94BC28EC
:104FF000B1E008950C94BC28672F782F8827B85FFC
:1050000039F0B93FCCF3869577956795B395D9F785
:105010003EF490958095709561957F4F8F4F9F4F8F
:105020000895E89409C097FB3EF49095809570959B
:1050300061957F4F8F4F9F4F9923A9F0F92F96E9E4
:10504000BB279395F695879577956795B795F11159
:10505000F8CFFAF4BB0F11F460FF1BC06F5F7F4FF6
:105060008F4F9F4F16C0882311F096E911C0772308
:1050700021F09EE8872F762F05C0662371F096E811
:10508000862F70E060E02AF09A95660F771F881FE0
:10509000DAF7880F9695879597F90895990F000884
:1050A000550FAA0BE0E8FEEF16161706E807F907FA
:1050B000C0F012161306E407F50798F0621B730B95
:1050C000840B950B39F40A2661F0232B242B252B16
:1050D00021F408950A2609F4A140A6958FEF811DB9
:1050E000811D089597F99F6780E870E060E008955A
:1050F0009FEF80EC089500240A94161617061806F0
:105100000906089500240A941216130614060506CB
:105110000895092E0394000C11F4882352F0BB0F5C
:1051200040F4BF2B11F460FF04C06F5F7F4F8F4FBF
:105130009F4F089557FD9058440F551F59F05F3FFA
:1051400071F04795880F97FB991F61F09F3F79F0A9
:1051500087950895121613061406551FF2CF46952B
:10516000F1DF08C0161617061806991FF1CF8695AD
:105170007105610508940895E894BB276627772791
:10518000CB0197F908950E944E2808F48FEF0895F7
:105190000E94DB280C9489280E947B2838F00E940A
:1051A000822820F0952311F00C9472280C94782812
:1051B00011240C94BD280E949A2870F3959FC1F386
:1051C000950F50E0551F629FF001729FBB27F00DB5
:1051D000B11D639FAA27F00DB11DAA1F649F66270A
:1051E000B00DA11D661F829F2227B00DA11D621F59
:1051F000739FB00DA11D621F839FA00D611D221F13
:10520000749F3327A00D611D231F849F600D211DF6
:10521000822F762F6A2F11249F5750409AF0F1F079
:1052200088234AF0EE0FFF1FBB1F661F771F881FE2
:1052300091505040A9F79E3F510580F00C94722880
:105240000C94BD285F3FE4F3983ED4F386957795A0
:105250006795B795F795E7959F5FC1F7FE2B880F88
:10526000911D9695879597F90895FB01DC010190B2
:105270000D920020E1F70895FB01DC014150504000
:1052800048F001900D920020C9F701C01D924150D5
:105290005040E0F70895AEE0B0E0E1E5F9E20C94AB
:1052A000072C0D891E898F89988D26E02C831A83FF
:1052B000098397FF02C080E090E801979E838D8369
:1052C000AE01455E5F4F698D7A8DCE0101960E94D9
:1052D0007B294D815E8157FD0AC02F813885421799
:1052E00053070CF49A01020F131FF80110822E9637
:1052F000E4E00C94232CABE0B0E0E1E8F9E20C949C
:10530000F92B7C013B018A01FC0117821682838103
:1053100081FFC8C1CE0101965C01F7019381F301C1
:1053200093FD859193FF81913F01882309F453C137
:10533000853239F493FD859193FF81913F01853248
:1053400029F4B70190E00E946B2BE7CF912C212C20
:10535000312CFFE1F31538F08B3211F190F48032EB
:1053600009F1833229F137FC3CC020ED280F2A30A7
:1053700050F536FE20C08AE0989E200D1124922E12
:1053800006C08D3291F0803371F7689430F8F301E4
:1053900093FD859193FF81913F018111DACF21C067
:1053A000689431F8689432F8F2CF689433F8EFCF0C
:1053B000689434F8ECCFEAE02E9E200D1124222EC2
:1053C000689435F8E4CF8E3229F436FC04C1689431
:1053D00036F8DDCF8C3619F4689437F8D8CF883694
:1053E000B1F2982F9F7D95549330E0F08336A1F170
:1053F0008337C1F1833509F063C02801F2E04F0E15
:10540000511CF801C080D180692D70E036FC02C0CB
:105410006FEF7FEFC6010E94552B4C01689437F85F
:1054200082010AC00C5F1F4FFFE3F9838824839435
:10543000912C6501E89437F833FE2DC0522C81146D
:10544000910471F5552009F468CFB70180E290E02E
:105450000E946B2B5A94F6CFF801808189830E5FEE
:105460001F4FE4CF2801F2E04F0E511CF801C0801D
:10547000D180692D70E036FC02C06FEF7FEFC6016E
:105480000E94602B4C018201D5CFB70180E290E0F1
:105490000E946B2B2A942814190409F0B0F7CECF80
:1054A000F60137FC859137FE81916F01B70190E0DD
:1054B0000E946B2B51105A94F1E08F1A9108BFCFC4
:1054C000843619F0893609F077C0F80137FE6BC0D1
:1054D00060817181828193810C5F1F4FF32DFF7674
:1054E0003F2E97FF09C090958095709561957F4FED
:1054F0008F4F9F4F689437F82AE030E0A5010E9453
:105500009B2BC82ECA188C2C432C36FE0CC0E8945A
:1055100040F8C91440F434FE05C032FC03C0F32D3A
:10552000FE7E4F2E892C44FE95C0FE01EC0DF11D30
:105530008081803309F087C0242D297E422E842D5E
:105540008870582E43FC95C040FE8FC09C2C82145E
:1055500018F42C0C922C981844FE91C0B70180E3EB
:1055600090E00E946B2B42FE09C088E790E041FE6C
:1055700002C088E590E0B7010E946B2BC91408F4C3
:105580008AC0CA94D12C9FEFC91AD90ACA0CDB1C55
:10559000F60182916F01B70190E00E946B2BAC1471
:1055A000BD04B1F74FCF60817181072E000C880BCD
:1055B000990B0E5F1F4F92CFD32CE894D4F82AE0BA
:1055C00030E0853739F1232D297FD22E8F3601F136
:1055D00048F48835A9F0F701868197812B96E2E19E
:1055E0000C94152C803749F08837A9F7D4FE02C0F7
:1055F0006894D2F820E130E00DC06894D4F8F6CF7A
:1056000034FE03C0822F8660D82E20E132E002C033
:1056100028E030E0F801D7FE0FC0608171818281FF
:1056200093810C5F1F4FA5010E949B2BC82ECA18A7
:105630003D2CE89437F867CF6081718190E080E07D
:105640000E5F1F4FF0CF42FC02C0839478CF83944B
:10565000839475CF842D867809F471CFF6CFB70186
:1056600080E290E00E946B2B83948214C0F3512C53
:1056700073CF522C5818821408F46ECFF8CF842DB3
:10568000867809F47BCF8BE241FE80E247FC8DE215
:10569000B70190E071CFB70180E390E00E946B2BDF
:1056A0009A946CCF8FEF9FEF99CFFC0105906150DA
:1056B00070400110D8F7809590958E0F9F1F089528
:1056C000FC016150704001900110D8F780959095D1
:1056D0008E0F9F1F08950F931F93CF93DF93182F63
:1056E000092FEB018B8181FD09C01FEF0FEF812F87
:1056F000902FDF91CF911F910F91089582FF14C0D9
:105700002E813F818C819D81281739073CF4E881E7
:10571000F981CF0101969983888310838E819F81BF
:1057200001969F838E83E3CFE885F985812F0995C4
:10573000892BA1F3DACFFA01AA27283051F12031C1
:1057400081F1E8946F936E7F6E5F7F4F8F4F9F4F15
:10575000AF4FB1E03ED0B4E03CD0670F781F891F57
:105760009A1FA11D680F791F8A1F911DA11D6A0F25
:10577000711D811D911DA11D20D009F468943F91D8
:105780002AE0269F11243019305D3193DEF6CF01D7
:105790000895462F4770405D4193B3E00FD0C9F79D
:1057A000F6CF462F4F70405D4A3318F0495D31FD0A
:1057B0004052419302D0A9F7EACFB4E0A69597955D
:1057C000879577956795BA95C9F700976105710533
:1057D00008959B01AC010A2E06945795479537957D
:1057E0002795BA95C9F7620F731F841F951FA01DD7
:1057F00008952F923F924F925F926F927F928F9275
:105800009F92AF92BF92CF92DF92EF92FF920F934F
:105810001F93CF93DF93CDB7DEB7CA1BDB0B0FB659
:10582000F894DEBF0FBECDBF09942A883988488816
:105830005F846E847D848C849B84AA84B984C884AC
:10584000DF80EE80FD800C811B81AA81B981CE0FA3
:10585000D11D0FB6F894DEBF0FBECDBFED01089588
:04586000F894FFCFEA
:10586400494703470396000000D0070000000000EA
:1058740000F4010000320064002C01000032009C9E
:10588400FF2C010000320064002C01000032009C57
:10589400FF2C01000000000000F40100000000C81B
:1058A400000807000000000000F40100006400325A
:1058B40000D00700006400CEFFD00700006400326F
:1058C40000D00700006400CEFFD0070000000000F5
:1058D40000F401000000000000E8034803750355CC
:1058E40004A603840398032F2F22225C5C620866BB
:1058F4000C6E0A720D7409000D0A0074727565004D
:1059040066616C7365006E756C6C005C753030306C
:1059140030006F6B006572720063757272656E742D
:105924005F6D6F6465007B25735F6F6B7D0A007B21
:105934006F6B7D0A007B68656C6C6F5F6F6B7D0AB3
:10594400007B73746174733A72783D25752C6A64B4
:105954003D25752C70653D25752C62633D25752CA0
:1059640074783D25752C6D733D256C757D0A007B1F
:1059740025735F66616C73657D0A006374726C00E5
:1059840073656E735F660073656E735F7300727820
:02599400000011
:00000001FF
