:200000000C94D6000C94871A0C94601A0C94FE000C94FE000C94FE000C94FE000C94FE00F9
:200020000C94FE000C94FE000C94FE000C94251C0C94FE000C94FE000C94FE000C94FE008D
:200040000C94161A0C94FE000C94D41A0C94AE1A0C94FE000C94FE000C94FE000C94FE00C4
:200060000C94061B0C94FE002021736572766F002021756C747261002021696D755F6D6F81
:2000800074696F6E002021696D75002021626174745F637269740020216261747400207998
:2000A00061773D007761726E00646F6E650020696D753D0020626174743D00494E49543AAF
:2000C000007D002C626174745F6D763A002C61335F6D763A005F6164633A007B002C696ED5
:2000E00069743A002C6B69636B3A002C72616D703A002C64623A002C6361703A002C623A3D
:20010000002C626174743A002C6D696E3A002C72616D3A002C696D753A00454C475631313D
:200120005442002C68773A007B0020217573002021626174740020626174743D0020696D56
:20014000753D00454C4756313154420048573A0000000000240027002A0000000000250054
:2001600028002B0000000008000201000003040700000000000000000000000023002600CA
:200180002900040404040404040402020202020203030303030301020408102040800102F6
:2001A00004081020010204081020261D11241FBECFEFD8E0DEBFCDBF12E0A0E0B1E0E8E302
:2001C000F4E502C005900D92AC32B107D9F725E0ACE2B2E001C01D92A83BB207E1F710E0F1
:2001E000C6EDD0E004C02197FE010E94C824C53DD107C9F70E94421F0C941A2A0C94000072
:200200008F929F92AF92BF92FF920F931F93CF93DF93F09088052BE02F1508F44CC020912C
:200220008A0508E512E0021B110927FD1395000F111F000F111F20918905C8E8D0E0C21B53
:20024000D10927FDD395CC0FDD1FCC0FDD1F4E010D2E000CAA08BB089801012E000C440B5C
:20026000550B281939094A095B09DC010E946F2424EB30E040E050E00E944524820E931E17
:20028000A41EB51E8C169D062CF0E801801691060CF4E4012297CC0FDD1F2FB7F8948F2DAF
:2002A00090E0FC01EE0FFF1FE80FF91FED51FC4FD283C1832FBFDF91CF911F910F91FF90E8
:2002C000BF90AF909F908F900895CF93DF93FC01D9019C91992339F08091DE038C5F891B67
:2002E000843028F01C92672BF9F0CF0104C0309729F490E080E0DF91CF910895242F30E0F1
:20030000C9014996EF01F7FF04C0CC27DD27CE1BDF0BC817D90734F51E161F0664F387EEB3
:200320009FEF821B930BE7CF309719F38C918111DCCF8091DE038C5F8C9350E0CA0149963B
:200340009F01F7FF04C0222733272E1B3F0B281739075CF61E161F0674F287EE9FEF841BDB
:20036000950BC9CF672B11F3C0CFCF93DF93FB01E81BF90BD1F06115710531F0009761F192
:20038000C4F016161706BCF030E0AF01F7FF04C0442755274E1B5F0B2417350734F4BC0124
:2003A0001E161F06DCF4620F731FCB01DF91CF91089577FFE9CFEB0177FF04C0CC27DD278D
:2003C000C61BD70BDC0197FF04C0AA27BB27A81BB90BAC17BD07C4F6242FD6CF621B730BB5
:2003E000E4CF8F929F92AF92BF92CF92DF92EF92FF920F931F93CF93DF936C017B01809160
:00000001FF
