:200000000C94D6000C94871A0C94601A0C94FE000C94FE000C94FE000C94FE000C94FE00F9
:200020000C94FE000C94FE000C94FE000C94251C0C94FE000C94FE000C94FE000C94FE008D
:200040000C94161A0C94FE000C94D41A0C94AE1A0C94FE000C94FE000C94FE000C94FE00C4
:200060000C94061B0C94FE002021736572766F002021756C747261002021696D755F6D6F81
:2000800074696F6E002021696D75002021626174745F637269740020216261747400207998
:2000A00061773D007761726E00646F6E650020696D753D0020626174743D00494E49543AAF
:2000C000007D002C626174745F6D763A002C61335F6D763A005F6164633A007B002C696ED5
:2000E00069743A002C6B69636B3A002C72616D703A002C64623A002C6361703A002C623A3D
:20010000002C626174743A002C6D696E3A002C72616D3A002C696D753A00454C475631313D
:200120005442002C68773A007B0020217573002021626174740020626174743D0020696D56
:20014000753D00454C4756313154420048573A0000000000240027002A0000000000250054
:2001600028002B0000000008000201000003040700000000000000000000000023002600CA
:200180002900040404040404040402020202020203030303030301020408102040800102F6
:2001A00004081020010204081020261D11241FBECFEFD8E0DEBFCDBF12E0A0E0B1E0E8E302
:2001C000F4E502C005900D92AC32B107D9F725E0ACE2B2E001C01D92A83BB207E1F710E0F1
:2001E000C6EDD0E004C02197FE010E94C824C53DD107C9F70E94421F0C941A2A0C94000072
:200200008F929F92AF92BF92FF920F931F93CF93DF93F09088052BE02F1508F44CC020912C
:200220008A0508E512E0021B110927FD1395000F111F000F111F20918905C8E8D0E0C21B53
:20024000D10927FDD395CC0FDD1FCC0FDD1F4E010D2E000CAA08BB089801012E000C440B5C
:20026000550B281939094A095B09DC010E946F2424EB30E040E050E00E944524820E931E17
:20028000A41EB51E8C169D062CF0E801801691060CF4E4012297CC0FDD1F2FB7F8948F2DAF
:2002A00090E0FC01EE0FFF1FE80FF91FED51FC4FD283C1832FBFDF91CF911F910F91FF90E8
:2002C000BF90AF909F908F900895CF93DF93FC01D9019C91992339F08091DE038C5F891B67
:2002E000843028F01C92672BF9F0CF0104C0309729F490E080E0DF91CF910895242F30E0F1
:20030000C9014996EF01F7FF04C0CC27DD27CE1BDF0BC817D90734F51E161F0664F387EEB3
:200320009FEF821B930BE7CF309719F38C918111DCCF8091DE038C5F8C9350E0CA0149963B
:200340009F01F7FF04C0222733272E1B3F0B281739075CF61E161F0674F287EE9FEF841BDB
:20036000950BC9CF672B11F3C0CFCF93DF93FB01E81BF90BD1F06115710531F0009761F192
:20038000C4F016161706BCF030E0AF01F7FF04C0442755274E1B5F0B2417350734F4BC0124
:2003A0001E161F06DCF4620F731FCB01DF91CF91089577FFE9CFEB0177FF04C0CC27DD278D
:2003C000C61BD70BDC0197FF04C0AA27BB27A81BB90BAC17BD07C4F6242FD6CF621B730BB5
:2003E000E4CF8F929F92AF92BF92CF92DF92EF92FF920F931F93CF93DF936C017B01809160
:20040000DE038F5F8093DE039090DF0391100CC08091D50356E0952E813031F034E0932E21
:20042000823011F04CE0942E8090E00381100BC08091D5032FE0822E813029F0823009F4AB
:200440005CC094E1892EC091E103C11109C08091D503C4EB813021F0C4E6823009F0CFEF17
:20046000F60120813181F70180819181D0E0BE01C217D30744F0662777276C1B7D0B62171E
:2004800073070CF4B901C817D9073CF0D195C195D109C817D9070CF4EC01A090D803B090B0
:2004A000D903282D492DC5010E94B5018C01282D492DBE018091DA039091DB030E94B5011B
:2004C000EC018091E2038F3FD9F08130E9F42CED33E04091D603B501C8010E9465018C012A
:2004E0006091DA037091DB032DED33E04091D703CE010E946501EC0107C08AE0882EA3CF5A
:200500008091D503882319F38091D6030115110591F090E0980117FF04C022273327201BE3
:20052000310B281739073CF410161106ACF100271127081B190B8091D703209791F090E0BD
:200540009E01D7FF04C0222733272C1B3D0B281739073CF41C161D060CF1CC27DD27C81B55
:20056000D90B1093D9030093D803D093DB03C093DA03F60111830083F701D183C083DF912C
:20058000CF911F910F91FF90EF90DF90CF90BF90AF909F908F9008958C01CDCFEC01E1CF90
:2005A000833081F028F4813099F08230A9F008958730A9F08830C9F08430B1F4809180002E
:2005C0008F7D03C0809180008F7780938000089584B58F7784BD089584B58F7DFBCF809148
:2005E000B0008F778093B00008958091B0008F7DF9CF1F93CF93DF93282F30E0F901EC5924
:20060000FE4F8491F901EA56FE4FD491F901EE57FE4FC491CC23A9F0162F81110E94D002D8
:20062000EC2FF0E0EE0FFF1FE65AFE4FA591B4918FB7F894EC91111108C0D095DE23DC939E
:200640008FBFDF91CF911F910895DE2BF8CFCF93DF9390E0FC01EA56FE4F24918E579E4F0A
:20066000FC0184918823C9F090E0880F991FFC01E05BFE4FA591B491FC01E65AFE4FC59165
:20068000D49161110DC09FB7F8948C91209582238C938881282328839FBFDF91CF91089574
:2006A000623051F49FB7F8943C91822F809583238C93E8812E2BEFCF8FB7F894EC912E2B01
:2006C0002C938FBFEACFCF93DF93209188052C3008F05AC0EC0161E08AE00E94270380915F
:2006E0008805282F30E0F901EE0FFF1FE20FF31FED51FC4F9081907C9A60908320E232E027
:200700002C1B3D0B35952795359527952093890510928A052CE0622F0E94A824829FB001EF
:20072000112430E020E0AB01420F531FFA01EE0FFF1FE40FF51FED51FC4F908196FD16C0E5
:200740002F5F3F4F2C30310571F781110FC01092800082E0809381001092850010928400BD
:20076000B19A80916F00826080936F00E09188058E2F90E0FC01EE0FFF1FE80FF91FED51BA
:20078000FC4F80818064808380918805DF91CF9108951F93CF93DF93182FEB0161E00E947F
:2007A0002703209739F460E0812FDF91CF911F910C94F902CF3FD10511F461E0F5CFE12F22
:2007C000F0E0EC59FE4FE491E33031F140F4E130B1F0E230E1F0C038D1057CF7E4CFE73039
:2007E00029F1E83059F1E430B1F780918000806280938000D0938B00C0938A0004C084B5F3
:20080000806884BDC7BDDF91CF911F91089584B5806284BDC8BDF7CF8091800080688093DB
:200820008000D0938900C0938800EDCF8091B00080688093B000C093B300E5CF8091B000CE
:2008400080628093B000C093B400DDCFCF93DF9300D000D0CDB7DEB79A8389837C836B839D
:20086000BE016D5F7F4FCE0101960E94F10161E083E00E94F90289819A8118161906F4F48A
:2008800061E088E00E94F90269817A8186E00E94C9038B819C8118161906F4F461E087E053
:2008A0000E94F9026B817C8185E00E94C9030F900F900F900F90DF91CF91089570E060E066
:2008C000892B21F360E088E00E94F90269817A81719561957109DACF70E060E0892B21F3AF
:2008E00060E087E00E94F9026B817C81719561957109DACF70E060E085E00E94C90370E0F9
:2009000060E086E00E94C903E5EDF3E014821382168215821782108608958E508064809323
:200920007C0080917A00806480937A0080917A0086FDFCCF80917800909179000895CF9245
:20094000DF92EF92FF9281E10E948D04BC0190E080E00E94FC252AE939E949E15DE30E94EE
:20096000B3266B017C012AE037ED43EA5DE30E94B3269B01AC01C701B6010E94E32420E02E
:2009800030E04AE754E40E94B3260E94CD259B0170935C0560935B05203787E1380758F432
:2009A00081E080935E0581E080935D05FF90EF90DF90CF900895293388E1380710F010926B
:2009C0005E0528358BE1380770F321323C4170F310925D05EBCF3FB7F8948091A8029091FA
:2009E000A902A091AA02B091AB0226B5A89B05C02F3F19F00196A11DB11D3FBFBA2FA92F45
:200A0000982F8827BC01CD01620F711D811D911D42E0660F771F881F991F4A95D1F70895BA
:200A20008F929F92AF92BF92CF92DF92EF92FF924B015C010E94EB046B017C010E94EB043A
:200A40006C197D098E099F09683E734081059105A8F321E0821A9108A108B10888EEC80E58
:200A600083E0D81EE11CF11C81149104A104B10429F7FF90EF90DF90CF90BF90AF909F90D6
:200A80008F9008951F93CF93DF93182FC8E8D5E08B8380E292E00E946303812F90E00E94BC
:200AA000000162EC71E080E090E00E941005E8818E2F90E0FC01EE0FFF1FE80FF91FED5114
:200AC000FC4F80818F7B8083DF91CF911F9108952FB7F8946091A4027091A5028091A60236
:200AE0009091A7022FBF0895CF93DF93C3EAD5E089830E9468056B837C838D839E83DF91C2
:200B0000CF9108950895089508950895AF92BF92CF92DF92EF92FF920F931F93CF93DF93C6
:200B20006C017B018B01040F151FEB015E01AE18BF08C017D10759F06991D601ED91FC914D
:200B40000190F081E02DC6010995892B79F7C501DF91CF911F910F91FF90EF90DF90CF903B
:200B6000BF90AF900895FC01538D448D252F30E0842F90E0821B930B541710F0CF9608956D
:200B800001970895FC01918D828D981761F0A28DAE0FBF2FB11D5D968C91928D9F5F9F730F
:200BA000928F90E008958FEF9FEF0895FC01918D828D981731F0828DE80FF11D858D90E0CE
:200BC00008958FEF9FEF0895FC01918D228D892F90E0805C9F4F821B91098F73992708957D
:200BE0008CE293E00E94E40521E0892B09F420E0822F089580E090E0892B29F00E94F00555
:200C000081110C9400000895FC01A48DA80FB92FB11DA35ABF4F2C91848D90E001968F7388
:200C20009927848FA689B7892C93A089B1898C91837080648C93938D848D981306C0028811
:200C4000F389E02D80818F7D80830895EF92FF920F931F93CF93DF93EC0181E0888F9B8D97
:200C60008C8D98131AC0E889F989808185FF15C09FB7F894EE89FF896083E889F9898081D1
:200C80008370806480839FBF81E090E0DF91CF911F910F91FF90EF900895F62E0B8D10E0D4
:200CA0000F5F1F4F0F731127E02E8C8D8E110CC00FB607FCFACFE889F989808185FFF5CF3F
:200CC000CE010E940406F1CFEB8DEC0FFD2FF11DE35AFF4FF0829FB7F8940B8FEA89FB89BC
:200CE00080818062CFCF0F931F93CF93DF938C01D0E0C0E0F801EC0FFD1F6491662341F0AF
:200D00008CE293E00E942606892B11F02196F2CFCE01DF91CF911F910F910895682F8CE266
:200D200093E00C942606CF93DF93EC01888D8823B9F0AA89BB89E889F9898C9185FD03C07E
:200D4000808186FD0DC00FB607FCF7CF8C9185FFF2CF808185FFEDCFCE010E940406E9CFDE
:200D6000DF91CF91089520917802260F3327331F21323105ECF420912603FC0190E080E0EA
:200D8000243069F082E00895A09178022191AC01485A5D4FA40FB52FB11D2C9301968617F7
:200DA00098F380917802680F6093780280E0089581E008951092260381E080930503109255
:200DC000000361E082E10E94F90261E083E10E94F902E9EBF0E080818E7F808380818D7FCB
:200DE000808388E48093B80085E48093BC000895CF93DF9391E0909357028823B9F0C0917E
:200E0000B800D091BA008091BC008A7B8093BC0060E082E10E94F90260E083E10E94F902DD
:200E20000E94DA06D093BA00C093B800DF91CF910895CF92DF92EF92FF920F931F93CF9301
:200E4000DF93D82FC62F613208F098C00E94EB046B017C018091260381116BC081E080935C
:200E60002603809305039FEF90930403109203039C0F909302038093010380910103DD0FE3
:200E8000D82BD093010380910003813009F078C0109200030E94EB046B017C0180910103BE
:200EA0008093BB008091280390912903A0912A03B0912B03892B8A2B8B2BA1F00E94EB04CD
:200EC000009128031091290320912A0330912B036C197D098E099F090617170728073907C8
:200EE00008F448C08091BC0083FDD8CF85EC8093BC000E94EB046B017C0180912603813055
:200F000009F440C0809103038C1710F4C0910303E0EEF2E0A6E0B3E080E08C1355C08C2F37
:200F2000DF91CF911F910F91FF90EF90DF90CF9008958091280390912903A0912A03B091F0
:200F40002B03892B8A2B8B2B09F484CF0E94EB04009128031091290320912A0330912B030D
:200F60006C197D098E099F09061717072807390708F070CF809127030E94F806C0E0CFCF2D
:200F800085EEB5CF8091280390912903A0912A03B0912B03892B8A2B8B2B09F4AECF0E94C9
:200FA000EB04009128031091290320912A0330912B036C197D098E099F0906171707280738
:200FC000390708F09ACFD6CF91919D938F5FA5CF8F929F92AF92BF92CF92DF92EF92FF924F
:200FE0000F931F93CF93DF93D091DF02D13208F0D7C0182FC091DE020E94EB046B017C0103
:201000008091260381116BC082E080932603109305038FEF8093040310920303D0930203E8
:20102000AEEBB2E0E0EEF2E080E0D81391C01092010380910103CC0FC82BC0930103809158
:201040000003813009F088C0109200030E94EB046B017C01809101038093BB00809128035D
:2010600090912903A0912A03B0912B03892B8A2B8B2BA1F00E94EB0400912803109129038C
:2010800020912A0330912B036C197D098E099F09061717072807390708F442C08091BC00C4
:2010A00083FDD8CF85EC8093BC000E94EB046B017C0180912603823009F450C0809104033E
:2010C0008F3F09F46FC080910403803209F46CC080910403803309F469C084E026C08091D7
:2010E000280390912903A0912A03B0912B03892B8A2B8B2B09F484CF0E94EB048090280370
:2011000090902903A0902A03B0902B036C197D098E099F0986169706A806B90608F070CF91
:20112000809127030E94F80685E01092BD021092DF021092BC02DF91CF911F910F91FF907C
:20114000EF90DF90CF90BF90AF909F908F9008959D9191938F5F69CF85EEA5CF809128032E
:2011600090912903A0912A03B0912B03892B8A2B8B2B09F49ECF0E94EB04009128031091DE
:20118000290320912A0330912B036C197D098E099F09061717072807390708F08ACFC0CF82
:2011A00081E0C3CF80E0C1CF82E0BFCF83E0BDCF0895E091BB028091BA02E81730F4F0E0E2
:2011C000EA5FFC4F808190E008958FEF9FEF08959091BB028091BA022FEF3FEF981748F4E2
:2011E000E92FF0E0EA5FFC4F208130E09F5F9093BB02C90108958091BA029091BB02891B2E
:20120000990B0895CF92DF92EF92FF920F931F93CF93DF937C01CB018A012091BC022223F9
:2012200089F0EB016B01C40ED51ECC15DD0569F06991D701ED91FC910190F081E02DC70148
:201240000995F3CF642F0E94B306C801DF91CF911F910F91FF90EF90DF90CF900895CF937C
:20126000DF931F92CDB7DEB769832091BC022223F9F02091DF02203258F021E030E0FC016F
:201280003383228390E080E00F90DF91CF9108958091BD02E82FF0E0E254FD4F99819083B1
:2012A0008F5F8093BD028093DF0281E090E0ECCF61E0CE0101960E94B306F7CF90E080E056
:2012C00008950F931F93CF93DF938C01A895D0E0C0E0F8018081882339F08CE293E00E94DE
:2012E000B305892B41F4A895A895CE01DF91CF911F910F910895F80161918F018CE293E0EB
:201300000E9426062196CE0183709927892B09F7A895DFCFCF93DF9300D0CDB7DEB7809159
:20132000B4059091B505009711F488EB95E09E012F5F3F4FA901481B590B209100013091F6
:2013400001014217530724F450930101409300010F900F90DF91CF910895CF92DF92EF9209
:20136000FF920F931F93CF93DF93EC0181E08A87362F272F6F3F710519F014F03FEF20E03B
:20138000832F922F81302FEF920714F481E09FEF99838883CA014F3F510519F014F08FEF1A
:2013A00090E081302FEF920714F481E09FEF9B838A838C819D81892B71F4672B61F081E0AB
:2013C0008B870E9468056C5E7F4F8F4F9F4F6D877E878F87988B8E819F81892B81F48A81F3
:2013E0009B81892B61F081E08C870E9468056C5E7F4F8F4F9F4F698B7A8B8B8B9C8B088126
:2014000019811D830C838A819B819F838E8370E060E001151105F1F08B85882369F00E9456
:201420006805CD84DE84EF84F8886C157D058E059F0508F440C01B86101611060CF04CC07D
:2014400061E088E00E94F902B80117FF03C071956195710986E00E94C9030E811F8170E0EB
:2014600060E001151105E1F08C85882361F00E946805C988DA88EB88FC886C157D058E05D3
:201480009F0578F11C8610161106DCF561E087E00E94F902B80117FF03C071956195710942
:2014A00085E0DF91CF911F910F91FF90EF90DF90CF900C94C903C80117FF04C0882799274D
:2014C000801B910B01978F34910508F0B5CF1016110624F000EB1FEF60E0B3CF00E510E087
:2014E000AFCFC80117FF04C088279927801B910B01978F34910538F61016110624F000EBCA
:201500001FEF60E0C4CF00E510E0C0CFCF93DF93EC0161E083E00E94F90281E08A87DF91A2
:20152000CF910895CF92DF92EF92FF920F931F930E9468056B017C0180918105909182053F
:20154000A0918305B0918405B701A601481B590B6A0B7B0B8091870590E0B0E0A0E048176B
:2015600059076A077B0758F480918505909186051F910F91FF90EF90DF90CF90089560E07C
:201580008DE00E94F90283E090E00197F1F761E08DE00E94F90283E290E00197F1F760E00E
:2015A0008DE00E94F902E2EAF1E06491EEE8F1E0E491F0E0EE0FFF1FE858FE4F85919491C0
:2015C00000E315E720E030E0462F0E94E11C611571058105910591F16F5F7F4F8F4F9F4F16
:2015E0009F70611571058105910541F10E94FC2528E23EE74CE05DE30E94B32620E030E0B9
:2016000040E05FE30E94B3260E94CD25CB01693C710510F088EC90E08230910510F482E0E0
:2016200090E09093860580938505C0928105D0928205E0928305F09284059ACF90E080E0F0
:20164000F0CFEF92FF920F931F93CF93DF93062FE72E142F91E09093BC0298E69093DE0231
:201660001092BD021092DF02682F89EC93E00E942F0980E00E94E807612F88E60E9419077C
:201680001092BB028093BA02F02EC02FDE2D89EC93E00E94E80889938C2F8F198117B8F3C8
:2016A000DF91CF911F910F91FF90EF900895CF92DF92EF92FF920F931F93CF93DF93CDB7CF
:2016C000DEB72E970FB6F894DEBF0FBECDBF80915F05882309F466C04EE0BE016F5F7F4F9D
:2016E0008BE30E94210B89819A8198278927982790936105809360058B819C8198278927C2
:20170000982790936305809362058D819E81982789279827909365058093640589859A8574
:2017200098278927982720916C0530916D05821B930B90936705809366058B859C859827EE
:201740008927982720916E0530916F05821B930B90936905809368058D859E8598278927D1
:2017600098272091700530917105821B930B90936B0580936A050E946805C0907405D090C5
:201780007505E0907605F090770560937405709375058093760590937705C114D104E10443
:2017A000F10479F42E960FB6F894DEBF0FBECDBFDF91CF911F910F91FF90EF90DF90CF90C0
:2017C000089500917205109173056C197D098E099F090E94FC2520E030E04AE754E40E9423
:2017E00054256B017C0160916A0570916B05072E000C880B990B0E94FE2520E030E043E046
:2018000053E40E9454259B01AC01C701B6010E94B32620E030E040E251E40E94B3260E94AF
:20182000C625600F711F693087E078071CF060517E40F9CF683F88EF78071CF4605F714FD0
:20184000F9CF7093730560937205ACCF0E94920A0E949F0460915B0570915C0590E080E05A
:201860000E94FC2520E030E04AE754E40E94542520E030E04AE754E40E94B3260E94CD2589
:20188000683E8CE1780740F01092D5038091A102882359F00C94570B68357B4120F081E098
:2018A0008093D503F3CF82E0FBCF0895FC0101900020E9F73197AF01481B590BBC018CE2BA
:2018C00093E00C9486058F929F92AF92BF920F931F93CF93DF93CDB7DEB7A1970FB6F894BC
:2018E000DEBF0FBECDBF19A2423008F44AE08E010F5D1F4F842E912CB12CA12CA5019401E2
:201900000E947724E62FB901CA01EA30F4F4E05DD801EE938D01232B242B252B79F790E0FC
:2019200080E0109719F0CD010E94560CA1960FB6F894DEBF0FBECDBFDF91CF911F910F9127
:20194000BF90AF909F908F900895E95CE1CFBC0190E080E04AE00C94630CCF92DF92EF9200
:20196000FF92CF93DF936C01990FEE08FF08F7FE17C08DE20E948E06EC0166277727CB019B
:201980006C197D098E099F094AE00E94630C8C0F9D1FDF91CF91FF90EF90DF90CF90089522
:2019A0004AE0C701B601DF91CF91FF90EF90DF90CF900C94630C682F70E090E080E04AE0E2
:2019C0000C94630CCF92DF92EF92FF920F931F93CF93DF9300D000D0CDB7DEB78091A40579
:2019E000882309F440C20E9468050091A6051091A7052091A8053091A9056B017C01C01A15
:201A0000D10AE20AF30AE091A405E150EB3008F022C2F0E0E25FF24F0C94C824190D500D5F
:201A2000800DDC0DF00D240E3B0E4C0E630E970EAD0E0E94680520912C02211115C0009107
:201A4000A6051091A7052091A8053091A905601B710B820B930B6A30710581059105C0F4BF
:201A600060E083E00E94F90282E024E1C216D104E104F104F0F50F900F900F900F90DF9167
:201A8000CF911F910F91FF90EF90DF90CF90089561E083E00E94F90281E080932C02E4CF87
:201AA00080912D0281111DC00E9468050091A6051091A7052091A8053091A905601B710B1B
:201AC000820B930B623371058105910550F48091A50581FD11C08AE50E94420581E080939A
:201AE0002D026EE5C61661E0D606E104F10418F283E00E947405BFCF80628093A505EECF1F
:201B000080912E0281113EC00E949F0460915B0570915C0590E080E00E94FC2520E030E059
:201B20004AE754E40E94542520E030E04AE754E40E94B3260E94CD259B017093B105609351
:201B4000B005283E8CE1380730F11092D5030E94920A9093B3058093B2050197803991401E
:201B600028F08091A50580618093A5058091A102811105C08091A50584608093A50581E02C
:201B800080932E0284E064E6C616D104E104F10408F471CFAECF8091A50528353B4138F054
:201BA00091E09093D50381608093A505D0CF92E09093D5038260F8CF8091A505837071F057
:201BC0008CE390E0BC010E94260486E9C816D104E104F10408F44FCF85E08BCF80E5F1CFA3
:201BE0000E947A0480912F02811125C08091A102882309F10E94570B6091720570917305CE
:201C0000072E000C880B990B0E94FE2520E030E040E251E40E94542520E030E040E251E49E
:201C20000E94B3260E94C6257093AB056093AA0581E080932F0286E098ECC916D104E1041F
:201C4000F10408F418CF55CF8091A505837089F08CE390E0919581959109BC010E94260423
:201C600087E026E9C216D104E104F10408F403CF40CF80E5EECF0E947A0468ECC616D10443
:201C8000E104F10408F4F7CE8091A50581FF02C08BE02FCF88E02DCF8091A505837089F0B8
:201CA0008CE390E0BC019195819591090E94260486E9C816D104E104F10408F4DCCE89E0DB
:201CC00018CF80E5EECF0E947A0480913002811125C08091A102882309F10E94570B6091D3
:201CE000720570917305072E000C880B990B0E94FE2520E030E040E251E40E94542520E035
:201D000030E040E251E40E94B3260E94C6257093AD056093AC0581E0809330028AE098EC67
:201D2000C916D104E104F10408F4A5CEE2CE8091A505837081F08CE390E066277727681B4A
:201D4000790B0E94260426E9C216D104E104F10408F491CE9DCF80E5EFCF0E947A0482E031
:201D60008093A3051092D9031092D8031092DB031092DA031092DC031092DD038CE293E0CA
:201D80000E94B305C2970CF466C08BEB90E00E9473068091A305823009F060C089EA90E002
:201DA0000E94730684EB90E00E9473068091B0059091B1050E94A70C8EEA90E00E94730619
:201DC0008091A102882309F44CC081E30E948E068EE990E00E9473068091AE059091AF0566
:201DE0006AE070E00E94B424CB010E94AD0C8091A50580FF04C087E990E00E94730680919E
:201E0000A50581FF04C08BE890E00E9473068091A50582FF04C085E890E00E9473068091CD
:201E2000A50583FF04C088E790E00E9473068091A50584FF04C080E790E00E9473068091B3
:201E4000A50585FF04C088E690E00E9473068BE991E00E94560C1092A4050DCE84EA90E0AA
:201E60009FCF80E3B3CF8091CD049091CE040197B1F58091CB049091CC04892B81F10E9463
:201E80006805C090D704D090D804E090D904F090DA046C197D098E099F09C090D304D090F2
:201EA000D404E090D504F090D6046C157D058E059F0508F43FC01092CE041092CD041092E9
:201EC000D0041092CF041092D2041092D1041092DC041092DB041092DE041092DD048091AF
:201EE000C204882309F4C7CD8091B1049091B204892B09F4C0CD0E946805C090C704D0907B
:201F0000C804E090C904F090CA046C197D098E099F09C090C304D090C404E090C504F09028
:201F2000C6046C157D058E059F0508F446C01092C204A1CD8091D1049091D2044091CF0444
:201F40005091D0049A01281B390B2F3F310519F014F02FEF30E021306FEF360714F421E0D6
:201F60003FEF3C832B83840F951F8F3F910519F014F08FEF90E081302FEF920714F481E04F
:201F80009FEF9A838983BE016F5F7F4FCE0103960E94F1016B817C817093DC046093DB0495
:201FA00049815A815093DE044093DD048091CB049091CC040E94AD0992CF0E946805C0901A
:201FC000B604D090B704E090B804F090B9046C197D098E099F09C090BA04D090BB04E090DC
:201FE000BC04F090BD046C157D058E059F0508F446C08091B5048F5F8093B5040E94680511
:202000006093B6047093B7048093B8049093B9048091B3049091B4048230910509F47AC086
:2020200008F068C0019709F082CF25E030E08FE491E0E091B504F0E0E217F30708F077CF7A
:2020400023E0EE0FFF1F2A95E1F7E80FF91F84819581A681B7818093BA049093BB04A0935C
:20206000BC04B093BD04808191819093BF048093BE04828193819093C1048093C0048091E7
:20208000BE049091BF044091C0045091C1049C01241B350B2F3F310519F014F02FEF30E064
:2020A00021306FEF360714F421E03FEF3C832B83840F951F8F3F910519F014F08FEF90E0EA
:2020C00081302FEF920714F481E09FEF9A838983BE016F5F7F4FCE0103960E94F101498157
:2020E0005A816B817C818091B1049091B2040E94AD09C1CC8330910541F0049709F017CFA6
:2021000022E030E087E091E094CF25E030E087E191E08FCF22E030E08FE391E08ACFCF9376
:20212000DF93809155028823A1F0C5E3D2E009900020E9F7C653D2408CE293E00E94B30530
:202140008C179D0730F085E392E00E94610910925502DF91CF91089585ED8093BC0080917A
:20216000280390912903A0912A03B0912B030796A11DB11D23E0B695A795979587952A9560
:20218000D1F72091BC0024FD03C0109226030895409128035091290360912A0370912B0368
:2021A000452B462B472B69F30097A105B10541F025E32A95F1F700000197A109B109E1CFF1
:2021C000809127030C94F8060F931F93CF93DF93CDB7DEB7E0970FB6F894DEBF0FBECDBF27
:2021E0007F936F939F938F938EE991E09F938F931F9280E38F938E010F5F1F4F1F930F9346
:202200000E943527C8010E9461090FB6F894DEBF0FBECDBFE0960FB6F894DEBF0FBECDBFE7
:20222000DF91CF911F910F9108950F931F93CF93DF93CDB7DEB7A0970FB6F894DEBF0FBEAE
:20224000CDBF9F938F9387EA91E09F938F931F9280E28F938E010F5F1F4F1F930F930E94D2
:202260003527C8010E9461090FB6F894DEBF0FBECDBFA0960FB6F894DEBF0FBECDBFDF91F9
:20228000CF911F910F9108950F931F93CF93DF93CDB7DEB7A0970FB6F894DEBF0FBECDBF32
:2022A0008E010F5F1F4F009741F1FC012081222321F19F938F9383EB91E09F938F931F92BD
:2022C00080E28F931F930F930E9435270FB6F894DEBF0FBECDBFC8010E9461098CE293E02B
:2022E0000E949306A0960FB6F894DEBF0FBECDBFDF91CF911F910F9108956CEB71E0C801F8
:202300000E942027E8CF009711F00C94E32390E080E00895CF92DF92EF92FF920F931F933A
:20232000CF93DF936B01EB0109900020E9F72197C61BD70B7C018701F70181917F01882323
:2023400019F18232C1F7AE01B601CF010E942727892B89F7F701EC0FFD1F8081823259F799
:202360002296C00FD11FCE012991222321F02A33D1F32032C1F3DF91CF911F910F91FF9031
:20238000EF90DF90CF90089580E090E0F4CFA8958FEF9FEF9093700480936F041092710443
:2023A00010927A041092790410927C0410927B0410927E0410927D041092800410927F0409
:2023C000109281041092820410928304109284041092850462EC71E08AE294E00E948A1174
:2023E000009799F48091B0029091B10201969093B1028093B00210926E0410926D04109227
:202400006C0410926B0480E008950E9483119093700480936F0464EC71E08AE294E00E94C8
:202420008A110097C9F0FC0120812232A9F43196A1E7B4E030E020E08191882349F0823285
:2024400039F02730310521F02F5F3F4F8D93F4CF2F583B4FF901108266EC71E08AE294E096
:202460000E948A11009731F00E94831190937A048093790469EC71E08AE294E00E948A113D
:20248000009731F00E94831190937C0480937B046CEC71E08AE294E00E948A11009731F09B
:2024A0000E94831190937E0480937D046FEC71E08AE294E00E948A11009731F00E948311F6
:2024C0009093800480937F0462ED71E08AE294E00E948A11009751F00E94012460938104EB
:2024E00070938204809383049093840420916F0430917004832F8095881F8827881F8093DE
:20250000850437FD0AC00E9468056093B6027093B7028093B8029093B90210926E0410925D
:202520006D0410926C0410926B04A8958091850408952F923F924F925F926F927F928F92FC
:202540009F92AF92BF92CF92DF92EF92FF920F931F93CF93DF93CDB7DEB7C157D1090FB6DC
:20256000F894DEBF0FBECDBFA8950E948F100E9468054B015C01712C02E010E0EE24E394AB
:20258000F12C8CE293E00E94E405181619060CF003C160E3C62E7C1409F4FEC00E94680514
:2025A000681979098A099B09663071058105910510F0A895F1C08CE293E00E94C20573947A
:2025C000972D977009F4A8958A3AD9F28535C9F220916D0430916E0421303105D9F060F0FD
:2025E0002230310571F610926E0410926D0410926C0410926B04C5CF8B3709F0C2CF8093AF
:202600002A04F0926C04E0926B04F0926E04E0926D04B7CF8D3709F073C020916B0430918B
:202620006C042034310508F061C0A9014F5F5F4F50936C0440936B04285F3B4FD9019296D9
:202640008C93485F5B4FFA0112A210936E0400936D040E94C711882309F493CF8091850424
:20266000882309F48ECF87E1EFE6F4E0DE01AF5ABF4F01900D928A95E1F710926E04109271
:202680006D0410926C0410926B0410922A04109285048FEF9FEF9093700480936F041092E0
:2026A000710410927A041092790410927C0410927B0410927E0410927D0410928004109214
:2026C0007F0410928104109282041092830410928404A89563968EAD9FAD6397009709F08E
:2026E00040C084ED91E00E94610956C08091AE029091AF0201969093AF028093AE0273CFD3
:202700008A3011F08D3081F4E0916B04F0916C04E230F10508F467CFE85FFB4F12A281A15A
:202720008D3709F060CF91CF8B3739F480932A0430936C0420936B0424CF20916B043091F4
:202740006C042034310590F6A9014F5F5F4F50936C0440936B04285F3B4FD90192968C932C
:2027600010CF85309105A9F50E948A096D968EAD9FAD6D9797FD2BC0853B910514F084EB86
:2027800090E00E9442050E948A0981E590E08C0F9D1F02960E944411A895CF58DF4F0FB698
:2027A000F894DEBF0FBECDBFDF91CF911F910F91FF90EF90DF90CF90BF90AF909F908F90BF
:2027C0007F906F905F904F903F902F90089580E0D8CF8837910509F040C10E948A098CE2F9
:2027E00093E00E94B3058E010F5F1F4F843691050CF4EAC060915B0570915C0590E080E024
:202800000E94FC2520E030E04AE754E40E94542520E030E04AE754E40E94B3260E94CD25D9
:202820004B0188E291E00E947306809102010E948E0680913302909134020E94AD0C8CE2A6
:202840000E948E0680913102909132020E94AD0C8CE20E948E068091CD040E94DB0C8CE2D1
:202860000E948E068091A2020E94DB0C83E291E00E9473068AE191E00E94730684E191E026
:202880000E9473068091A10290E00E94AD0C8EE091E00E9473068091B4059091B505009768
:2028A00011F488EB95E0F801E81BF90BCF010E94AD0C88E091E00E947306809100019091D9
:2028C00001010E94AD0C81E091E00E947306C4010E94A70C8DEF90E00E9473068091D503A4
:2028E0000E94DB0C87EF90E00E9473068091E103811109C08091D503813009F445C08230B0
:2029000009F040C084E60E94DB0C82EF90E00E9473068091D6030E94DB0C8FE20E948E06B5
:202920008091D7030E94DB0C8BEE90E00E9473068091DF03811107C08091D503813041F107
:20294000823021F584E00E94DB0C8FE20E948E068091E003811107C08091D5038130E1F063
:202960008230C1F48AE00E94DB0C84EE90E00E9473069091E20381E09F3F81F0913091F008
:2029800080E010C08FEFBFCF84EBBDCF8CE0DBCF86E0D9CF84E1E7CF8FE0E5CF9091D503A5
:2029A0009111EECF90E00E94AD0C8DED90E00E9473068091A3050E94DB0C8DE70E948E06FC
:2029C0008BE991E00E94560C0E9468058090B6029090B702A090B802B090B902811491044F
:2029E000A104B104B1F1DC01CB0188199909AA09BB09BF93AF939F938F938091B5028F93A6
:202A00008091B4028F938091B1028F938091B0028F938091AF028F938091AE028F9380912A
:202A2000AD028F938091AC028F9380EE91E09F938F931F9280E58F931F930F930E94352727
:202A4000C8010E9461090FB6F894DEBF0FBECDBFA3CE80E090E0DC01CCCF8238910509F058
:202A60004AC01092CE041092CD041092D0041092CF041092D2041092D1041092DC04109267
:202A8000DB041092DE041092DD041092C2041092D9031092D8031092DB031092DA0310924C
:202AA000DC031092DD030E947A041092A4051092A5051092A6051092A7051092A805109272
:202AC000A9051092AB051092AA051092AD051092AC051092AF051092AE051092B105109259
:202AE000B0051092B3051092B20581E08093A3050E9474054ACE8C38910509F07CC06D968D
:202B00008EAD9FAD6D978330910509F440C07CF481309105E9F0029709F037CE6F968EAD7D
:202B20009FAD6F97009731F51092DF032ECE8430910509F442C0059709F027CE6F968EADF3
:202B40009FAD6F97009709F048C01092E1031DCE6E962FAD6E976F968FAD6F97922F81119B
:202B600001C087E3211101C097E38093D6039093D7030BCE1816190644F48333910514F026
:202B800082E390E08093DF0300CE81E0FBCF6F968EAD9FAD6F97009719F41092E003F5CDF5
:202BA0001816190644F48333910514F082E390E08093E003EACD81E0FBCF6F962EAD3FADC7
:202BC0006F978FEF223031052CF481E02130310509F080E08093E203D8CD823391054CF064
:202BE0008F3F910519F014F08FEF90E08093E103CCCD82E3FBCF883C91050CF4E1C2A8957D
:202C000063968EAD9FAD6397823D910509F406C284F4883C910509F481C0893C910509F4B8
:202C200090C181E590E08C0F9D1F02960E941511C0CC833D910509F4C0C2873E934089F73D
:202C400084E48093020183E090E09093CE048093CD041092C2046D968EAD9FAD6D978F3F86
:202C6000910519F014F08FEF90E081305FEF950714F481E09FEFAA969FAF8EAFAA976F9620
:202C80008EAD9FAD6F978F3F910519F014F08FEF90E08130AFEF9A0714F481E09FEF9A8344
:202CA0008983BE016F5F7F4FCE0188599F4F0E94F10161E083E00E94F90289819A811816E7
:202CC00019060CF08BC161E087E00E94F90269817A8185E00E94C903AA968EAD9FADAA9788
:202CE000181619060CF089C161E088E00E94F902AA966EAD7FADAA9786E00E94C903AA961F
:202D00008EAD9FADAA97909334028093330289819A81909332028093310258C18DE48093EB
:202D200002018091C20481111092C2048EE895E00E94860A6D962EAC3FAC6D974FEF24165E
:202D4000310421F01CF022242A94312C51E025165FEF350624F42224239433243A946F968C
:202D60000EAD1FAD6F970F3F110519F014F00FEF10E001308FEF180714F401E01FEFA79665
:202D80008CAC9DACAEACBFACA79791E1891697E29906A104B10430F030E1832E37E2932E70
:202DA000A12CB12CA6E98A169104A104B10428F426E9822E912CA12CB12C0E946805209149
:202DC000CD043091CE04E091CB04F091CC042130310509F0A5C0309709F4A2C04090D70448
:202DE0005090D8046090D9047090DA04411451046104710409F494C06B017C01C418D508F5
:202E0000E608F708AE96CCAEDDAEEEAEFFAEAE972091D3043091D4044091D5045091D60468
:202E2000E2962CAF3DAF4EAF5FAFE2976093D7047093D8048093D9049093DA04C216D30680
:202E4000E406F50608F074C0641575058605970508F46EC0BA01A901480D591D6A1D7B1DCE
:202E60004C195D096E097F094093D3045093D4046093D5047093D6043092D0042092CF045F
:202E80001093D2040093D10421E030E03093CE042093CD04309709F48CCBCF010E94860A0A
:202EA000C101801B910B8F3F910519F014F08FEF90E081303FEF930714F481E09FEFAA960A
:202EC0009FAF8EAFAA97020D131D0F3F110519F014F00FEF10E001304FEF140714F401E015
:202EE0001FEF1A830983BE016F5F7F4FCE0188599F4F0E94F101AA966EAD7FADAA97709343
:202F0000DC046093DB0449815A815093DE044093DD048091CB049091CC040E94AD0949CBA4
:202F20006093D7047093D8048093D9049093DA048092D3049092D404A092D504B092D604E9
:202F40009BCF88E580930201109234021092330210923202109231021092CE041092CD0443
:202F60001092D0041092CF041092D2041092D1041092DC041092DB041092DE041092DD046D
:202F80001092C2040E947A041092A4058091A305813011F41092A3051092D9031092D803AA
:202FA0001092DB031092DA031092DC031092DD0370E060E085E00E94C90370E060E086E0B6
:202FC0000E94C90360E083E00E94F90281E590E08C0F9D1F02960E944411EBCA70E060E042
:202FE000892B09F476CE60E087E00E94F90269817A817195619571096CCE70E060E0892BBF
:2030000009F47ACE60E088E00E94F902AA966EAD7FADAA977195619571096ECE0E948A0977
:203020001092CE041092CD041092D0041092CF041092D2041092D1041092DC041092DB04CC
:203040001092DE041092DD048EE895E00E94860A6D960EAD1FAD6D97C8010197049708F0CA
:20306000E0CD6F96EEACFFAC6F97A7968CAC9DACAEACBFACA797B1E18B16B7E29B06A10480
:20308000B10430F090E1892E97E2992EA12CB12CE8EE8E16E3E09E06A104B10430F488EE74
:2030A000882E83E0982EA12CB12C1093B4040093B3041092B5040E9468056093B6047093C8
:2030C000B7048093B8049093B9040E9468056093C7047093C8048093C9049093CA04809207
:2030E000C3049092C404A092C504B092C60481E08093C2040330110559F00430110509F405
:2031000056C00230110509F055C00FE311E002C007E111E0F80184819581A681B78180933F
:20312000BA049093BB04A093BC04B093BD04B7017727072E000C880B990B0E94FE2520E065
:2031400030E04FE753E40E9454254B015C01D8016D917C91072E000C880B990B0E94FE250D
:20316000A50194010E94B3260E94C6257093BF046093BE04F80162817381072E000C880BED
:20318000990B0E94FE25A50194010E94B3260E94C6257093C1046093C0048091B10490911D
:2031A000B204009709F412CF0E94860A0FCF07E011E0B0CF0FE411E0ADCF1092C20406CFE0
:2031C0008436910519F08E369105A9F51092CE041092CD041092D0041092CF041092D20454
:2031E0001092D1041092DC041092DB041092DE041092DD041092C20410928F0510928E057B
:2032000010929105109290051092930510929205109295051092940570E060E085E00E94BE
:20322000C90370E060E086E00E94C903109298058CEB91E058CAA89563968EAD9FAD63975E
:203240008631910509F44DC08731910509F45FC08531910509F0DCC00E94920A6D962EADB0
:203260003FAD6D9721303105F9F49C012150310981E590E08C0F9D1F02962431310588F4D6
:203280009F938F9388E092E09F938F931F9280E28F938E010F5F1F4F1F930F930E943527BA
:2032A000CFCB0E94151178CA2230310509F06DCA9F938F9383E192E09F938F931F9288E01B
:2032C0008F938E010F5F1F4F1F930F930E943527B80181E590E08C0F9D1F02960E94E410FB
:2032E000B2CB6D968EAD9FAD6D97009721F480E10E948D04DDCF8130910511F48FE0F8CF55
:20330000029711F48EE0F4CF80E090E0D1CF6D968EAD9FAD6D9701E510E00C0F1D1F0E5F46
:203320001F4F019709F04BC081E10E948D047C0160915B0570915C0590E080E00E94FC252B
:2033400020E030E04AE754E40E94542520E030E04AE754E40E94B3260E94CD254B018BED8D
:2033600090E00E947306C8010E94560C85ED90E00E947306C7010E94A70C8DEC90E00E9450
:2033800073069701A8E8B3E10E9499242FEF33E040E050E00E947724C9010E94A70C83EC4D
:2033A00090E00E947306C4010E94A70C81EC90E00E9473068BE991E00E94560CEDC96091E0
:2033C0005B0570915C0590E080E00E94FC2520E030E04AE754E40E94542520E030E04AE7C3
:2033E00054E40E94B3260E94CD257F936F9383E192E09F938F931F9288E08F93DE01119687
:203400007D01BF93AF930E943527B701C80166CF8230910509F4C0C9079709F4BDC96496FD
:203420008FAD6497882309F403CFAFC91F920F920FB60F9211242F933F938F939F93AF934C
:20344000BF938091A4029091A502A091A602B091A7023091A30223E0230F2D3758F50196F5
:20346000A11DB11D2093A3028093A4029093A502A093A602B093A7028091A8029091A90297
:20348000A091AA02B091AB020196A11DB11D8093A8029093A902A093AA02B093AB02BF9194
:2034A000AF919F918F913F912F910F900FBE0F901F90189526E8230F0296A11DB11DD2CF80
:2034C0001F920F920FB60F9211242F933F934F935F936F937F938F939F93AF93BF93EF9319
:2034E000FF93E0910501F09106010995FF91EF91BF91AF919F918F917F916F915F914F91CD
:203500003F912F910F900FBE0F901F9018951F920F920FB60F9211242F933F934F935F935F
:203520006F937F938F939F93AF93BF93EF93FF93E0910301F09104010995FF91EF91BF9182
:20354000AF919F918F917F916F915F914F913F912F910F900FBE0F901F9018951F920F92B2
:203560000FB60F9211242F933F934F935F936F937F938F939F93AF93BF93EF93FF938CE2CA
:2035800093E00E940406FF91EF91BF91AF919F918F917F916F915F914F913F912F910F900D
:2035A0000FBE0F901F9018951F920F920FB60F9211242F938F939F93EF93FF93E0913C037C
:2035C000F0913D038081E0914203F091430382FD1BC09081809145038F5F8F7320914603FE
:2035E000821741F0E0914503F0E0E45DFC4F958F80934503FF91EF919F918F912F910F90AE
:203600000FBE0F901F9018958081F4CF1F920F920FB60F9211242F933F934F935F936F93C7
:203620007F938F939F93AF93BF93EF93FF938091B900887F803609F44AC0F0F5883209F452
:20364000A7C018F5803109F49BC0B8F4882309F4F9C0883009F494C0FF91EF91BF91AF9137
:203660009F918F917F916F915F914F913F912F910F900FBE0F901F901895883109F488C025
:20368000803251F78093040314C0803409F49DC040F48033B9F38833F9F68093040385EC6C
:2036A000B0C0803509F485C0883509F496C0883499F60E94AC10D0CF883909F48CC038F514
:2036C000883729F050F4883611F0803729F683E08093260310929A0257C0883809F47BC04D
:2036E000803919F0803809F0B7CF80919A02803208F071C0E0919A0281E08E0F80939A028F
:203700008091BB00F0E0E658FD4F80833DC0803B39F0E0F4803A09F479C0883A09F09CCFB5
:2037200084E0809326031092790210927802E0919D02F0919E0209958091780281110FC0F5
:2037400081E0809378021092580209C0803C09F4A6CF883C09F4A3CF883B09F07DCFE091DC
:20376000790281E08E0F80937902F0E0E85AFD4F80818093BB00909179028091780229C005
:20378000809101038093BB0085EC8093BC0064CF9091030380910203981758F5E091030323
:2037A00081E08E0F80930303F0E0E052FD4F8081E9CFE091030381E08E0F8093030380914C
:2037C000BB00F0E0E052FD4F808390910303809102039817C8F285E8D8CFE091030381E04B
:2037E0008E0F809303038091BB00F0E0E052FD4F80838091050381115CCF81E080930003A9
:2038000084EA8093BC001092260326CF85EC8093BC001092260380919A02803230F4E091AC
:203820009A02F0E0E658FD4F108260919A0270E0E0919B02F0919C028AE792E009951092D3
:203840009A020ACF1092040334CF1F920F920FB60F9211242F933F934F935F936F937F93DE
:203860008F939F93AF93BF93CF93DF93EF93FF9380915602C0910704D0E087FF24C01092F7
:20388000850010928400809156028F5F8093560280915602082E000C990B8C179D0724F40D
:2038A000809156028C30C4F18091840090918500049680349C4908F47AC0809184009091D4
:2038C0008500049676C080915602082E000C990B8C179D07C4F6E09156028E2FEE0F990B1C
:2038E000FC01EE0FFF1FE80FF91FED51FC4F808186FFC9CFE09156028E2FEE0F990BFC01D6
:20390000EE0FFF1FE80FF91FED51FC4F808160E08F730E94F902B7CF209184003091850013
:20392000E09156028E2FEE0F990BFC01EE0FFF1FE80FF91FED51FC4F81819281820F931F58
:203940009093890080938800E09156028E2FEE0F990BFC01EE0FFF1FE80FF91FED51FC4F49
:20396000808186FF11C0E09156028E2FEE0F990BFC01EE0FFF1FE80FF91FED51FC4F808118
:2039800061E08F730E94F902FF91EF91DF91CF91BF91AF919F918F917F916F915F914F91A7
:2039A0003F912F910F900FBE0F901F90189580E49CE990938900809388008FEF80935602F7
:2039C000E3CFCF92DF92EF92FF920F931F93E82FF92F05C0015011092109310961F19081C7
:2039E00096239417B9F305C0015011092109310911F1908196239413F7CFC12CD12CE12CF3
:203A0000F12C0AC08FEFC81AD80AE80AF80A0C151D052E053F0579F080818623841791F39D
:203A20006C2D7D2D8E2D9F2D1F910F91FF90EF90DF90CF90089560E070E080E090E01F91E3
:203A40000F91FF90EF90DF90CF90089510922F0310922E0388EE93E0A0E0B0E08093300367
:203A600090933103A0933203B09333032BE731E030932D0320932C0325EC30E030933903F6
:203A80002093380324EC30E030933B0320933A0320EC30E030933D0320933C0321EC30E0F9
:203AA00030933F0320933E0322EC30E0309341032093400326EC30E03093430320934203CF
:203AC000109245031092460310924703109248031092CC031092CB038093CD039093CE0380
:203AE000A093CF03B093D0038DE891E09093CA038093C9031092D50387E38093D603809313
:203B0000D7031092D9031092D8031092DB031092DA031092DC031092DD031092DE031092A9
:203B2000DF031092E0031092E1039FEF9093E20310928F0510928E05109291051092900528
:203B400010929305109292051092950510929405909396058AE080939705109298051092C3
:203B6000990510929A0510929B0510929C0510929D0510929E0510929F051092A005109229
:203B8000A1051092A205809107048C3008F077C191E0980F909307048093880590E0FC01DB
:203BA000EE0FFF1FE80FF91FED51FC4F88EB9BE0928381838AE580938B0510928C0584EB97
:203BC00080938D0510928105109282051092830510928405109286051092850584E68093C4
:203BE000870580E092E0909379058093780590937B0580937A0590937D0580937C059093A5
:203C00007F0580937E051092800510925F0510926105109260051092630510926205109299
:203C20006505109264051092670510926605109269051092680510926B0510926A05109210
:203C40006D0510926C0510926F0510926E05109271051092700510927305109272051092B0
:203C6000740510927505109276051092770588EE9CE190935C0580935B0510925D051092E4
:203C80005E0510925205109253051092540584E18093550510925605109257051092580507
:203CA0001092590510925A0510924C0510924D0510924E0510924F05109250051092510542
:203CC00010924705109248051092490510924A0510924B05EFEDF4E0118210821282138236
:203CE0001482158216821782108611861286148613863D9685E0E734F80771F71092CC0442
:203D00001092CB041092CE041092CD041092DC041092DB041092DE041092DD041092D004CB
:203D20001092CF041092D2041092D1041092D3041092D4041092D5041092D6041092D704B8
:203D40001092D8041092D9041092DA041092B2041092B1041092C20481E090E09093B40423
:203D60008093B3041092B5041092B6041092B7041092B8041092B9041092BA041092BB04E7
:203D80001092BC041092BD041092BF041092BE041092C1041092C0041092C3041092C404F5
:203DA0001092C5041092C6041092C7041092C8041092C9041092CA041092AE041092AF04C9
:203DC0001092B004E6E8F4E0119211921192119284E0EE3AF807C1F710922804109229047F
:203DE00010926C0410926B0410926E0410926D0410922A04109285048FEF9FEF90937004DB
:203E000080936F041092710410927A041092790410927C0410927B0410927E0410927D043C
:203E20001092800410927F04109281041092820410928304109284041092A3051092A40500
:203E40001092A5051092A6051092A7051092A8051092A9051092AB051092AA051092AD05E5
:203E60001092AC051092AF051092AE051092B1051092B0051092B3051092B2050895909322
:203E8000880598CECF93DF93CDB7DEB72A970FB6F894DEBF0FBECDBF789484B5826084BDD2
:203EA00084B5816084BD85B5826085BD85B5816085BD80916E00816080936E0010928100E8
:203EC0008091810082608093810080918100816080938100809180008160809380008091BD
:203EE000B10084608093B1008091B00081608093B00080917A00846080937A0080917A007D
:203F0000826080937A0080917A00816080937A0080917A00806880937A001092C1008091C5
:203F2000A2028F5F8093A202E0913C03F0913D0382E08083E0913803F09139031082E091F6
:203F40003A03F0913B0380E1808310924403E0914003F091410386E08083E0913E03F09103
:203F60003F03808180618083E0913E03F0913F03808188608083E0913E03F0913F03808143
:203F800080688083E0913E03F0913F0380818F7D808361E085E00E94270361E086E00E94F6
:203FA000270361E087E00E94270361E088E00E94270361E083E00E94270360E083E00E9439
:203FC000F90270E060E085E00E94C90370E060E086E00E94C90361E087E00E94F90261E099
:203FE00088E00E94F902109298051092930510929205109295051092940510928F051092BB
:204000008E05109291051092900560E081E10E9427030E949F0484EF91E00E94630380E29D
:2040200092E00E9463038AE590E00E94000164EF71E080E090E00E941005E09188058E2F9E
:2040400090E0FC01EE0FFF1FE80FF91FED51FC4F80818F7B80838AE580938B0561E08DE072
:204060000E94270360E08CE00E94270360E08DE00E94F90210928105109282051092830537
:204080001092840560E080E10E94270360E08FE00E94270360E08EE00E9427031AE0C12CAC
:2040A000D12C7601812C912C5401412C512C320180E10E948D04092E000CAA0BBB0B480E08
:2040C000591E6A1E7B1E8FE00E948D04092E000CAA0BBB0B880E991EAA1EBB1E8EE00E94EA
:2040E0008D04092E000CAA0BBB0BC80ED91EEA1EFB1E6AE070E080E090E00E941005115001
:20410000B9F6C301B2012AE030E040E050E00E94772430937B0520937A05C501B4012AE0D8
:2041200030E040E050E00E94772430937D0520937C05C701B6012AE030E040E050E00E94DE
:20414000772430937F0520937E0562E082E00E942703E6E6F1E08491E8E9F1E01491E4E812
:20416000F1E0F490FF2079F081110E94D002EF2DF0E0EE0FFF1FE858FE4FA591B491EC91D0
:20418000E12381E009F480E0817080934C0580934D051092BB021092BA021092BD021092E3
:2041A000DF020E94DA0683E895E090939E0280939D0284E895E090939C0280939B020E9453
:2041C00068056B017C0111E01093BC0288E68093DE026BE689EC93E00E942F0960E089EC0E
:2041E00093E00E942F0981E00E94E80764E670E080E090E00E9410050E9468056C197D0945
:204200008E099F09653F71408105910508F40CC280E08093A1020E949F0460915B05709177
:204220005C0590E080E00E94FC2520E030E04AE754E40E9454256B017C0120E030E04AE7CC
:2042400054E40E94B3260E94CD257093A00260939F0220E030E040EC50E4C701B6010E944D
:20426000AE2687FD0BC011E020E030E048E051E4C701B6010E944F2518160CF410E00E9468
:20428000920A01977C018CE293E00E94B30588978CF18CE491E00E94730683E491E00E9420
:2042A00073068DE391E00E9473068091A102882309F472C281E30E948E0686E391E00E94E3
:2042C000730680919F029091A0020E94A70C111104C08FE291E00E9473064FE8E41641E066
:2042E000F40620F08AE291E00E9473068BE991E00E94560CA8958EE895E09093CC048093A5
:20430000CB041092CE041092CD041092DC041092DB041092DE041092DD049093B2048093F1
:20432000B1041092C2041092AE041092AF041092B004E6E8F4E0119211921192119254E0FF
:20434000EE3AF507C1F71092D50387E38093D6038093D7031092D9031092D8031092DB0349
:204360001092DA031092DC031092DD031092DE031092DF031092E0031092E1038FEF809318
:20438000E2031092A3051092A4051092A5051092A6051092A7051092A8051092A90510927B
:2043A000AB051092AA051092AD051092AC051092AF051092AE051092B1051092B005109259
:2043C000B3051092B205109247050E946805609348057093490580934A0590934B05809158
:2043E00047058830F8F49DE0899FF0011124E152FB4F22EE3CE03183208344E150E060E06D
:2044000070E04283538364837583168217821086118691E0928726E132E0348723878F5F7E
:2044200080934705809147058830F8F4ADE08A9FF0011124E152FB4F22E835E0318320834D
:2044400044E150E060E070E04283538364837583168217821086118691E092872BE132E0F7
:20446000348723878F5F80934705809147058830F8F4BDE08B9FF0011124E152FB4F26E217
:204480003CE03183208344E650E060E070E04283538364837583168217821086118691E076
:2044A000928722E232E0348723878F5F80934705809147058830F8F42DE0829FF0011124C6
:2044C000E152FB4F29E932E13183208341E050E060E070E042835383648375831682178257
:2044E0001086118691E0928729E232E0348723878F5F8093470588E199E20FB6F894A895C4
:20450000809360000FBE90936000A8958091A305813039F081E08093A3051092A5050E94FE
:2045200074058CE293E00E94B305029754F062E58CE293E00E9426066AE08CE293E00E9427
:204540002606A8958DE0A82E90E0892E90E0992EA8950E9468056B017C018091480590919D
:204560004905A0914A05B0914B05A7019601281B390B4A0B5B0BDA01C90185369105A105BF
:20458000B10548F0A895C0924805D0924905E0924A05F0924B05B12C80914705B81608F00E
:2045A000FDC0AB9C8001112401521B4FD8011A968C911A978823B1F18D919C911197892B39
:2045C00089F116968D919D910D90BC91A02DB701A601481B590B6A0B7B0BF8018281938181
:2045E000A481B581481759076A077B07D8F0A895C0924805D0924905E0924A05F0924B05C7
:204600000190F081E02D0995F801C682D782E086F186A895C0924805D0924905E0924A0529
:20462000F0924B05B394B8CF1093BC021092BD021092DF0265E789EC93E00E942F0980E027
:204640000E94E8078111E4CD61E088E60E9419078093BA02882309F4DBCD89EC93E00E946C
:20466000E808182F8F3F09F4D3CD0E9468056C197D098E099F09653F71408105910508F0D6
:20468000C7CD183609F0C4CD0E9468056F83788789879A8712E3C12CD12C7601812C912CBD
:2046A0005401412C512C320146E0BE016F5F7F4F83E40E94210B89819A819827892798277F
:2046C000092E000CAA0BBB0B480E591E6A1E7B1E8B819C81982789279827092E000CAA0BDF
:2046E000BB0B880E991EAA1EBB1E8D819E81982789279827092E000CAA0BBB0BC80ED91E20
:20470000EA1EFB1E6AE070E080E090E00E941005115051F6C301B20122E330E040E050E0D3
:204720000E94452430936D0520936C05C501B40122E330E040E050E00E94452430936F05F3
:2047400020936E05C701B60122E330E040E050E00E94452430937105209370050E946805D4
:204760002F81388549855A85621B730B840B950B613D77408105910508F04ACD0E94680566
:204780006093740570937505809376059093770581E080935F053DCD80E38DCD0E948F1023
:2047A000A89561E070E080E090E00E9410058114910409F4CDCE0E94F005882309F4C8CE0D
:2047C0000E940000C5CEFC0188279927E89421912032E9F3293010F02E30C8F32B3241F0DC
:2047E0002D3239F4689404C00E943D24820F911D219120532A30C0F31EF4909581959F4FBE
:2048000008951F93FC0199278827BC01E89411911032E9F3193010F01E30C8F31B3251F004
:204820001D3249F4689406C00E942824610F711D811D911D119110531A30B0F33EF49095A9
:204840008095709561957F4F8F4F9F4F1F910895592F482F372F262F660F771F881F991F3D
:20486000660F771F881F991F620F731F841F951F660F771F881F991F08957AE0979F902D20
:20488000879F802D910D11240895052E97FB1EF400940E945C2457FD07D00E94772407FCDD
:2048A00003D04EF40C945C2450954095309521953F4F4F4F5F4F08959095809570956195E2
:2048C0007F4F8F4F9F4F08950E949924A59F900DB49F900DA49F800D911D11240895B7FF6B
:2048E0000C9464240E946424821B930B0895A1E21A2EAA1BBB1BFD010DC0AA1FBB1FEE1FAD
:20490000FF1FA217B307E407F50720F0A21BB30BE40BF50B661F771F881F991F1A9469F71D
:2049200060957095809590959B01AC01BD01CF010895A29FB001B39FC001A39F700D811D6D
:204940001124911DB29F700D811D1124911D0895991B79E004C0991F961708F0961B881F02
:204960007A95C9F78095089597FB072E16F4009407D077FD09D00E94CE2407FC05D03EF48F
:20498000909581959F4F0895709561957F4F0895EE0FFF1F0590F491E02D0994AA1BBB1B71
:2049A00051E107C0AA1FBB1FA617B70710F0A61BB70B881F991F5A95A9F780959095BC0178
:2049C000CD0108955058BB27AA270E94FA240C9474260E94662638F00E946D2620F039F44F
:2049E0009F3F19F426F40C9463260EF4E095E7FB0C945D26E92F0E94852658F3BA17620723
:204A000073078407950720F079F4A6F50C94A7260EF4E0950B2EBA2FA02D0B01B9019001B3
:204A20000C01CA01A0011124FF27591B99F0593F50F4503E68F11A16F040A22F232F342FFC
:204A40004427585FF3CF469537952795A795F0405395C9F77EF41F16BA0B620B730B840B15
:204A6000BAF09150A1F0FF0FBB1F661F771F881FC2F70EC0BA0F621F731F841F48F4879512
:204A800077956795B795F7959E3F08F0B0CF9395880F08F09927EE0F9795879508950E94E7
:204AA000392608F481E008950E9468250C9474260E946D2658F00E94662640F029F45F3F9E
:204AC00029F00C945D2651110C94A8260C9463260E94852668F39923B1F3552391F3951BED
:204AE000550BBB27AA2762177307840738F09F5F5F4F220F331F441FAA1FA9F335D00E2EC5
:204B00003AF0E0E832D091505040E695001CCAF72BD0FE2F29D0660F771F881FBB1F2617EE
:204B200037074807AB07B0E809F0BB0B802DBF01FF2793585F4F3AF09E3F510578F00C944E
:204B40005D260C94A8265F3FE4F3983ED4F3869577956795B795F7959F5FC9F7880F911D54
:204B60009695879597F90895E1E0660F771F881FBB1F621773078407BA0720F0621B730B2A
:204B8000840BBA0BEE1F88F7E09508950E94CD256894B1110C94A82608950E948D2688F0F9
:204BA0009F5798F0B92F9927B751B0F0E1F0660F771F881F991F1AF0BA95C9F714C0B1301E
:204BC00091F00E94A726B1E008950C94A726672F782F8827B85F39F0B93FCCF38695779540
:204BE0006795B395D9F73EF490958095709561957F4F8F4F9F4F0895E89409C097FB3EF4FA
:204C000090958095709561957F4F8F4F9F4F9923A9F0F92F96E9BB279395F695879577950C
:204C20006795B795F111F8CFFAF4BB0F11F460FF1BC06F5F7F4F8F4F9F4F16C0882311F082
:204C400096E911C0772321F09EE8872F762F05C0662371F096E8862F70E060E02AF09A95BD
:204C6000660F771F881FDAF7880F9695879597F90895990F0008550FAA0BE0E8FEEF1616FC
:204C80001706E807F907C0F012161306E407F50798F0621B730B840B950B39F40A2661F0D0
:204CA000232B242B252B21F408950A2609F4A140A6958FEF811D811D089597F99F6780E8B7
:204CC00070E060E008959FEF80EC089500240A941616170618060906089500240A94121651
:204CE0001306140605060895092E0394000C11F4882352F0BB0F40F4BF2B11F460FF04C0FD
:204D00006F5F7F4F8F4F9F4F089557FD9058440F551F59F05F3F71F04795880F97FB991F86
:204D200061F09F3F79F087950895121613061406551FF2CF4695F1DF08C0161617061806B8
:204D4000991FF1CF86957105610508940895E894BB2766277727CB0197F908950E94392628
:204D600008F48FEF08950E94C6260C9474260E94662638F00E946D2620F0952311F00C9460
:204D80005D260C94632611240C94A8260E94852670F3959FC1F3950F50E0551F629FF001F2
:204DA000729FBB27F00DB11D639FAA27F00DB11DAA1F649F6627B00DA11D661F829F2227D4
:204DC000B00DA11D621F739FB00DA11D621F839FA00D611D221F749F3327A00D611D231F61
:204DE000849F600D211D822F762F6A2F11249F5750409AF0F1F088234AF0EE0FFF1FBB1FF6
:204E0000661F771F881F91505040A9F79E3F510580F00C945D260C94A8265F3FE4F3983E40
:204E2000D4F3869577956795B795F795E7959F5FC1F7FE2B880F911D9695879597F908959C
:204E4000FB01DC0101900D920020E1F70895FB01DC014150504030F08D910190801919F445
:204E60000020B9F7881B990B0895AEE0B0E0EBE3F7E20C94F1290D891E898F89988D26E07F
:204E80002C831A83098397FF02C080E090E801979E838D83AE01455E5F4F698D7A8DCE0175
:204EA00001960E9465274D815E8157FD0AC02F813885421753070CF49A01020F131FF8016B
:204EC00010822E96E4E00C940D2AABE0B0E0EBE6F7E20C94E3297C013B018A01FC01178296
:204EE0001682838181FFC8C1CE0101965C01F7019381F30193FD859193FF81913F01882315
:204F000009F453C1853239F493FD859193FF81913F01853229F4B70190E00E945529E7CF40
:204F2000912C212C312CFFE1F31538F08B3211F190F4803209F1833229F137FC3CC020ED00
:204F4000280F2A3050F536FE20C08AE0989E200D1124922E06C08D3291F0803371F7689488
:204F600030F8F30193FD859193FF81913F018111DACF21C0689431F8689432F8F2CF689467
:204F800033F8EFCF689434F8ECCFEAE02E9E200D1124222E689435F8E4CF8E3229F436FC12
:204FA00004C1689436F8DDCF8C3619F4689437F8D8CF8836B1F2982F9F7D95549330E0F0F5
:204FC0008336A1F18337C1F1833509F063C02801F2E04F0E511CF801C080D180692D70E011
:204FE00036FC02C06FEF7FEFC6010E943F294C01689437F882010AC00C5F1F4FFFE3F98324
:2050000088248394912C6501E89437F833FE2DC0522C8114910471F5552009F468CFB70172
:2050200080E290E00E9455295A94F6CFF801808189830E5F1F4FE4CF2801F2E04F0E511C72
:20504000F801C080D180692D70E036FC02C06FEF7FEFC6010E944A294C018201D5CFB70118
:2050600080E290E00E9455292A942814190409F0B0F7CECFF60137FC859137FE81916F01F3
:20508000B70190E00E94552951105A94F1E08F1A9108BFCF843619F0893609F077C0F8012D
:2050A00037FE6BC060817181828193810C5F1F4FF32DFF763F2E97FF09C09095809570952D
:2050C00061957F4F8F4F9F4F689437F82AE030E0A5010E948529C82ECA188C2C432C36FED2
:2050E0000CC0E89440F8C91440F434FE05C032FC03C0F32DFE7E4F2E892C44FE95C0FE01D3
:20510000EC0DF11D8081803309F087C0242D297E422E842D8870582E43FC95C040FE8FC0DC
:205120009C2C821418F42C0C922C981844FE91C0B70180E390E00E94552942FE09C088E7A9
:2051400090E041FE02C088E590E0B7010E945529C91408F48AC0CA94D12C9FEFC91AD90A57
:20516000CA0CDB1CF60182916F01B70190E00E945529AC14BD04B1F74FCF60817181072E51
:20518000000C880B990B0E5F1F4F92CFD32CE894D4F82AE030E0853739F1232D297FD22E51
:2051A0008F3601F148F48835A9F0F701868197812B96E2E10C94FF29803749F08837A9F7F4
:2051C000D4FE02C06894D2F820E130E00DC06894D4F8F6CF34FE03C0822F8660D82E20E177
:2051E00032E002C028E030E0F801D7FE0FC060817181828193810C5F1F4FA5010E9485296D
:20520000C82ECA183D2CE89437F867CF6081718190E080E00E5F1F4FF0CF42FC02C0839418
:2052200078CF8394839475CF842D867809F471CFF6CFB70180E290E00E94552983948214AD
:20524000C0F3512C73CF522C5818821408F46ECFF8CF842D867809F47BCF8BE241FE80E254
:2052600047FC8DE2B70190E071CFB70180E390E00E9455299A946CCF8FEF9FEF99CFFC018F
:205280000590615070400110D8F7809590958E0F9F1F0895FC016150704001900110D8F737
:2052A000809590958E0F9F1F08950F931F93CF93DF93182F092FEB018B8181FD09C01FEFC8
:2052C0000FEF812F902FDF91CF911F910F91089582FF14C02E813F818C819D812817390736
:2052E0003CF4E881F981CF0101969983888310838E819F8101969F838E83E3CFE885F985E4
:20530000812F0995892BA1F3DACFFA01AA27283051F1203181F1E8946F936E7F6E5F7F4F1F
:205320008F4F9F4FAF4FB1E03ED0B4E03CD0670F781F891F9A1FA11D680F791F8A1F911DD2
:20534000A11D6A0F711D811D911DA11D20D009F468943F912AE0269F11243019305D319327
:20536000DEF6CF010895462F4770405D4193B3E00FD0C9F7F6CF462F4F70405D4A3318F002
:20538000495D31FD4052419302D0A9F7EACFB4E0A6959795879577956795BA95C9F70097E3
:2053A0006105710508959B01AC010A2E06945795479537952795BA95C9F7620F731F841F54
:2053C000951FA01D08952F923F924F925F926F927F928F929F92AF92BF92CF92DF92EF9212
:2053E000FF920F931F93CF93DF93CDB7DEB7CA1BDB0B0FB6F894DEBF0FBECDBF09942A887A
:20540000398848885F846E847D848C849B84AA84B984C884DF80EE80FD800C811B81AA81A1
:20542000B981CE0FD11D0FB6F894DEBF0FBECDBFED010895F894FFCFFF7F4985058505C898
:20544000000000D007000000000000F4010000640096002C01000064006AFF2C01000064FB
:205460000096002C01000064006AFF2C01000000000000F40100000000FA00080700000071
:20548000000000F401000096004B00D00700009600B5FFD007000096004B00D007000096F0
:2054A00000B5FFD007000000000000F40100000000000026068605B3059306E405C205D6DE
:2054C00005000000002F0902095E09D808FB08E808D9080D0A007B25735F25737D0A007B46
:2054E00025735F66616C73657D0A007B25735F6F6B7D0A007B6F6B7D0A004E004800443169
:205500000044320044330044340054007B68656C6C6F5F6F6B7D0A007B73746174733A722D
:20552000783D25752C6A643D25752C70653D25752C74783D25752C6D733D256C757D0A00AE
:205540007B25735F747275657D0A002575006374726C0073656E735F660073656E735F733A
:2055600000727800FFFFFFFFFFFFFFFFFFFFFFFFFFFFFFFFFFFFFFFFFFFFFFFFFFFFFFFF5D
:205580008E0F9F1F0895FC016150704001900110D8F7809590958E0F9F1F08950F931F93BE
:2055A000CF93DF93182F092FEB018B8181FD09C01FEF0FEF812F902FDF91CF911F910F91BE
:2055C000089582FF14C02E813F818C819D81281739073CF4E881F981CF010196998388831F
:2055E00010838E819F8101969F838E83E3CFE885F985812F0995892BA1F3DACFFA01AA2777
:20560000283051F1203181F1E8946F936E7F6E5F7F4F8F4F9F4FAF4FB1E03ED0B4E03CD01E
:20562000670F781F891F9A1FA11D680F791F8A1F911DA11D6A0F711D811D911DA11D20D019
:2056400009F468943F912AE0269F11243019305D3193DEF6CF010895462F4770405D419305
:20566000B3E00FD0C9F7F6CF462F4F70405D4A3318F0495D31FD4052419302D0A9F7EACF78
:20568000B4E0A6959795879577956795BA95C9F700976105710508959B01AC010A2E0694B1
:2056A0005795479537952795BA95C9F7620F731F841F951FA01D08952F923F924F925F9273
:2056C0006F927F928F929F92AF92BF92CF92DF92EF92FF920F931F93CF93DF93CDB7DEB7AF
:2056E000CA1BDB0B0FB6F894DEBF0FBECDBF09942A88398848885F846E847D848C849B84B3
:20570000AA84B984C884DF80EE80FD800C811B81AA81B981CE0FD11D0FB6F894DEBF0FBE74
:20572000CDBFED010895F894FFCFFF7F49B005B005C8000000D007000000000000F4010033
:2057400000640096002C01000064006AFF2C010000640096002C01000064006AFF2C010007
:205760000000000000F40100000000FA000807000000000000F401000096004B00D007007E
:20578000009600B5FFD007000096004B00D00700009600B5FFD007000000000000F401001A
:2057A00000000000005106B105DE05BE060F06ED050106000000005A092D098909030926CA
:2057C00009130904090D0A007B25735F25737D0A007B25735F66616C73657D0A007B2573D8
:2057E0005F6F6B7D0A007B6F6B7D0A004E00480044310044320044330044340054007B6866
:20580000656C6C6F5F6F6B7D0A007B73746174733A72783D25752C6A643D25752C70653D68
:2058200025752C74783D25752C6D733D256C757D0A007B25735F747275657D0A00257500B6
:205840006374726C0073656E735F660073656E735F7300727800FFFFFFFFFFFFFFFFFFFFAA
:20586000FFFFFFFFFFFFFFFFFFFFFFFFFFFFFFFFFFFFFFFFFFFFFFFFFFFFFFFFFFFFFFFF48
:20588000AF92BF92CF92DF92EF92FF920F931F93CF93DF93CDB7DEB7CA1BDB0B0FB6F89435
:2058A000DEBF0FBECDBF09942A88398848885F846E847D848C849B84AA84B984C884DF80F7
:2058C000EE80FD800C811B81AA81B981CE0FD11D0FB6F894DEBF0FBECDBFED010895F89426
:2058E000FFCFFF7F49D805D805C8000000D007000000000000F4010000640096002C01009E
:205900000064006AFF2C010000640096002C01000064006AFF2C01000000000000F4010077
:20592000000000FA000807000000000000F401000096004B00D00700009600B5FFD0070090
:205940000096004B00D00700009600B5FFD007000000000000F4010000000000007906D921
:20596000050606E6063706150629060000000082095509B1092B094E093B092C090D0A00E5
:205980007B25735F25737D0A007B25735F66616C73657D0A007B25735F6F6B7D0A007B6FB5
:2059A0006B7D0A004E00480044310044320044330044340054007B68656C6C6F5F6F6B7DEC
:2059C0000A007B73746174733A72783D25752C6A643D25752C70653D25752C74783D257580
:2059E0002C6D733D256C757D0A007B25735F747275657D0A002575006374726C0073656E83
:205A0000735F660073656E735F7300727800FFFFFFFFFFFFFFFFFFFFFFFFFFFFFFFFFFFFEB
:205A2000FFFFFFFFFFFFFFFFFFFFFFFFFFFFFFFFFFFFFFFFFFFFFFFFFFFFFFFFFFFFFFFF86
:205A4000FFFFFFFFFFFFFFFFFFFFFFFFFFFFFFFFFFFFFFFFFFFFFFFFFFFFFFFFFFFFFFFF66
:205A6000FFFFFFFFFFFFFFFFFFFFFFFFFFFFFFFFFFFFFFFFFFFFFFFFFFFFFFFFFFFFFFFF46
:205A80006374726C0073656E735F660073656E735F7300727800FFFFFFFFFFFFFFFFFFFF68
:205AA000FFFFFFFFFFFFFFFFFFFFFFFFFFFFFFFFFFFFFFFFFFFFFFFFFFFFFFFFFFFFFFFF06
:205AC000FFFFFFFFFFFFFFFFFFFFFFFFFFFFFFFFFFFFFFFFFFFFFFFFFFFFFFFFFFFFFFFFE6
:205AE000FFFFFFFFFFFFFFFFFFFFFFFFFFFFFFFFFFFFFFFFFFFFFFFFFFFFFFFFFFFFFFFFC6
:205B00001124922E06C08D3291F0803371F7689430F8F30193FD859193FF81913F0181113B
:205B2000DACF21C0689431F8689432F8F2CF689433F8EFCF689434F8ECCFEAE02E9E200D44
:205B40001124222E689435F8E4CF8E3229F436FC04C1689436F8DDCF8C3619F4689437F840
:205B6000D8CF8836B1F2982F9F7D95549330E0F08336A1F18337C1F1833509F063C028010A
:205B8000F2E04F0E511CF801C080D180692D70E036FC02C06FEF7FEFC6010E94172F4C013D
:205BA000689437F882010AC00C5F1F4FFFE3F98388248394912C6501E89437F833FE2DC087
:205BC000522C8114910471F5552009F468CFB70180E290E00E942D2F5A94F6CFF8018081D9
:205BE00089830E5F1F4FE4CF2801F2E04F0E511CF801C080D180692D70E036FC02C06FEF84
:205C00007FEFC6010E94222F4C018201D5CFB70180E290E00E942D2F2A942814190409F050
:205C2000B0F7CECFF60137FC859137FE81916F01B70190E00E942D2F51105A94F1E08F1A3A
:205C40009108BFCF843619F0893609F077C0F80137FE6BC060817181828193810C5F1F4F4F
:205C6000F32DFF763F2E97FF09C090958095709561957F4F8F4F9F4F689437F82AE030E0AF
:205C8000A5010E945D2FC82ECA188C2C432C36FE0CC0E89440F8C91440F434FE05C032FC47
:205CA00003C0F32DFE7E4F2E892C44FE95C0FE01EC0DF11D8081803309F087C0242D297ECA
:205CC000422E842D8870582E43FC95C040FE8FC09C2C821418F42C0C922C981844FE91C061
:205CE000B70180E390E00E942D2F42FE09C088E790E041FE02C088E590E0B7010E942D2F9F
:205D0000C91408F48AC0CA94D12C9FEFC91AD90ACA0CDB1CF60182916F01B70190E00E94A0
:205D20002D2FAC14BD04B1F74FCF60817181072E000C880B990B0E5F1F4F92CFD32CE894BE
:205D4000D4F82AE030E0853739F1232D297FD22E8F3601F148F48835A9F0F701868197811F
:205D60002B96E2E10C94D72F803749F08837A9F7D4FE02C06894D2F820E130E00DC0689476
:205D8000D4F8F6CF34FE03C0822F8660D82E20E132E002C028E030E0F801D7FE0FC0608175
:205DA0007181828193810C5F1F4FA5010E945D2FC82ECA183D2CE89437F867CF6081718138
:205DC00090E080E00E5F1F4FF0CF42FC02C0839478CF8394839475CF842D867809F471CF9D
:205DE000F6CFB70180E290E00E942D2F83948214C0F3512C73CF522C5818821408F46ECF7A
:205E0000F8CF842D867809F47BCF8BE241FE80E247FC8DE2B70190E071CFB70180E390E012
:205E20000E942D2F9A946CCF8FEF9FEF99CFFC010590615070400110D8F7809590958E0FDD
:205E40009F1F0895FC016150704001900110D8F7809590958E0F9F1F08950F931F93CF9330
:205E6000DF93182F092FEB018B8181FD09C01FEF0FEF812F902FDF91CF911F910F910895BA
:205E800082FF14C02E813F818C819D81281739073CF4E881F981CF01019699838883108360
:205EA0008E819F8101969F838E83E3CFE885F985812F0995892BA1F3DACFFA01AA272830E9
:205EC00051F1203181F1E8946F936E7F6E5F7F4F8F4F9F4FAF4FB1E03ED0B4E03CD0670F38
:205EE000781F891F9A1FA11D680F791F8A1F911DA11D6A0F711D811D911DA11D20D009F4CA
:205F000068943F912AE0269F11243019305D3193DEF6CF010895462F4770405D4193B3E0A6
:205F20000FD0C9F7F6CF462F4F70405D4A3318F0495D31FD4052419302D0A9F7EACFB4E0AE
:205F4000A6959795879577956795BA95C9F700976105710508959B01AC010A2E0694579590
:205F6000479537952795BA95C9F7620F731F841F951FA01D08952F923F924F925F926F9295
:205F80007F928F929F92AF92BF92CF92DF92EF92FF920F931F93CF93DF93CDB7DEB7CA1B02
:205FA000DB0B0FB6F894DEBF0FBECDBF09942A88398848885F846E847D848C849B84AA84A1
:205FC000B984C884DF80EE80FD800C811B81AA81B981CE0FD11D0FB6F894DEBF0FBECDBF4E
:205FE000ED010895F894FFCF496404640496000000D007000000000000F4010000320064AB
:20600000002C01000032009CFF2C010000320064002C01000032009CFF2C0100000000009C
:2060200000F40100000000C8000807000000000000F401000064003200D00700006400CE00
:20604000FFD007000064003200D00700006400CEFFD007000000000000F401000000000000
:20606000000505650492047205C304A104B5042F2F22225C5C6208660C6E0A720D740900D1
:206080000D0A00747275650066616C7365006E756C6C005C7530303030006F6B00657272AF
:2060A0000063757272656E745F6D6F6465007B25735F25737D0A007B25735F66616C7365CB
:2060C0007D0A007B25735F6F6B7D0A007B6F6B7D0A007B68656C6C6F5F6F6B7D0A007B734D
:2060E000746174733A72783D25752C6A643D25752C70653D25752C62633D25752C74783D23
:2061000025752C6D733D256C757D0A007B25735F747275657D0A002575006374726C007394
:20612000656E735F660073656E735F7300727800FFFFFFFFFFFFFFFFFFFFFFFFFFFFFFFFEF
:20614000FFFFFFFFFFFFFFFFFFFFFFFFFFFFFFFFFFFFFFFFFFFFFFFFFFFFFFFFFFFFFFFF5F
:20616000FFFFFFFFFFFFFFFFFFFFFFFFFFFFFFFFFFFFFFFFFFFFFFFFFFFFFFFFFFFFFFFF3F
:206180009F5798F0B92F9927B751B0F0E1F0660F771F881F991F1AF0BA95C9F714C0B13028
:2061A00091F00E949731B1E008950C949731672F782F8827B85F39F0B93FCCF38695779554
:2061C0006795B395D9F73EF490958095709561957F4F8F4F9F4F0895E89409C097FB3EF404
:2061E00090958095709561957F4F8F4F9F4F9923A9F0F92F96E9BB279395F6958795779517
:206200006795B795F111F8CFFAF4BB0F11F460FF1BC06F5F7F4F8F4F9F4F16C0882311F08C
:2062200096E911C0772321F09EE8872F762F05C0662371F096E8862F70E060E02AF09A95C7
:20624000660F771F881FDAF7880F9695879597F90895990F0008550FAA0BE0E8FEEF161606
:206260001706E807F907C0F012161306E407F50798F0621B730B840B950B39F40A2661F0DA
:20628000232B242B252B21F408950A2609F4A140A6958FEF811D811D089597F99F6780E8C1
:2062A00070E060E008959FEF80EC089500240A941616170618060906089500240A9412165B
:2062C0001306140605060895092E0394000C11F4882352F0BB0F40F4BF2B11F460FF04C007
:2062E0006F5F7F4F8F4F9F4F089557FD9058440F551F59F05F3F71F04795880F97FB991F91
:2063000061F09F3F79F087950895121613061406551FF2CF4695F1DF08C0161617061806C2
:20632000991FF1CF86957105610508940895E894BB2766277727CB0197F908950E94293137
:2063400008F48FEF08950E94B6310C9464310E94563138F00E945D3120F0952311F00C947E
:206360004D310C94533111240C9498310E94753170F3959FC1F3950F50E0551F629FF00110
:20638000729FBB27F00DB11D639FAA27F00DB11DAA1F649F6627B00DA11D661F829F2227DE
:2063A000B00DA11D621F739FB00DA11D621F839FA00D611D221F749F3327A00D611D231F6B
:2063C000849F600D211D822F762F6A2F11249F5750409AF0F1F088234AF0EE0FFF1FBB1F00
:2063E000661F771F881F91505040A9F79E3F510580F00C944D310C9498315F3FE4F3983E55
:20640000D4F3869577956795B795F795E7959F5FC1F7FE2B880F911D9695879597F90895A6
:2064200081E090E0F8940C941035FB01DC0101900D920020E1F70895FB01DC014150504082
:2064400048F001900D920020C9F701C01D9241505040E0F70895AEE0B0E0E1E3F2E30C9498
:20646000E7340D891E898F89988D26E02C831A83098397FF02C080E090E801979E838D83B0
:20648000AE01455E5F4F698D7A8DCE0101960E945B324D815E8157FD0AC02F8138854217D9
:2064A00053070CF49A01020F131FF80110822E96E4E00C940335ABE0B0E0E1E6F2E30C9462
:2064C000D9347C013B018A01FC0117821682838181FFC8C1CE0101965C01F7019381F3016D
:2064E00093FD859193FF81913F01882309F453C1853239F493FD859193FF81913F01853231
:2065000029F4B70190E00E944B34E7CF912C212C312CFFE1F31538F08B3211F190F48032F3
:2065200009F1833229F137FC3CC020ED280F2A3050F536FE20C08AE0989E200D1124922EAA
:2065400006C08D3291F0803371F7689430F8F30193FD859193FF81913F018111DACF21C05C
:20656000689431F8689432F8F2CF689433F8EFCF689434F8ECCFEAE02E9E200D1124222EFF
:20658000689435F8E4CF8E3229F436FC04C1689436F8DDCF8C3619F4689437F8D8CF883616
:2065A000B1F2982F9F7D95549330E0F08336A1F18337C1F1833509F063C02801F2E04F0EF6
:2065C000511CF801C080D180692D70E036FC02C06FEF7FEFC6010E9435344C01689437F8D4
:2065E00082010AC00C5F1F4FFFE3F98388248394912C6501E89437F833FE2DC0522C811455
:20660000910471F5552009F468CFB70180E290E00E944B345A94F6CFF801808189830E5F05
:206620001F4FE4CF2801F2E04F0E511CF801C080D180692D70E036FC02C06FEF7FEFC6017D
:206640000E9440344C018201D5CFB70180E290E00E944B342A942814190409F0B0F7CECFB1
:20666000F60137FC859137FE81916F01B70190E00E944B3451105A94F1E08F1A9108BFCFEA
:20668000843619F0893609F077C0F80137FE6BC060817181828193810C5F1F4FF32DFF7697
:2066A0003F2E97FF09C090958095709561957F4F8F4F9F4F689437F82AE030E0A5010E94B2
:2066C0007B34C82ECA188C2C432C36FE0CC0E89440F8C91440F434FE05C032FC03C0F32D3F
:2066E000FE7E4F2E892C44FE95C0FE01EC0DF11D8081803309F087C0242D297E422E842D42
:206700008870582E43FC95C040FE8FC09C2C821418F42C0C922C981844FE91C0B70180E31C
:2067200090E00E944B3442FE09C088E790E041FE02C088E590E0B7010E944B34C91408F450
:206740008AC0CA94D12C9FEFC91AD90ACA0CDB1CF60182916F01B70190E00E944B34AC14F0
:20676000BD04B1F74FCF60817181072E000C880B990B0E5F1F4F92CFD32CE894D4F82AE0BA
:2067800030E0853739F1232D297FD22E8F3601F148F48835A9F0F701868197812B96E2E127
:2067A0000C94F534803749F08837A9F7D4FE02C06894D2F820E130E00DC06894D4F8F6CFFC
:2067C00034FE03C0822F8660D82E20E132E002C028E030E0F801D7FE0FC0608171818281C7
:2067E00093810C5F1F4FA5010E947B34C82ECA183D2CE89437F867CF6081718190E080E0F0
:206800000E5F1F4FF0CF42FC02C0839478CF8394839475CF842D867809F471CFF6CFB701A5
:2068200080E290E00E944B3483948214C0F3512C73CF522C5818821408F46ECFF8CF842D11
:20684000867809F47BCF8BE241FE80E247FC8DE2B70190E071CFB70180E390E00E944B341F
:206860009A946CCF8FEF9FEF99CFFC010590615070400110D8F7809590958E0F9F1F089536
:20688000FC016150704001900110D8F7809590958E0F9F1F08950F931F93CF93DF93182F88
:2068A000092FEB018B8181FD09C01FEF0FEF812F902FDF91CF911F910F91089582FF14C0D4
:2068C0002E813F818C819D81281739073CF4E881F981CF0101969983888310838E819F813C
:2068E00001969F838E83E3CFE885F985812F0995892BA1F3DACFFA01AA27283051F120313B
:2069000081F1E8946F936E7F6E5F7F4F8F4F9F4FAF4FB1E03ED0B4E03CD0670F781F891F41
:206920009A1FA11D680F791F8A1F911DA11D6A0F711D811D911DA11D20D009F468943F91F2
